:060000000A128A11FC2F18
:100F180003308316031788008901013083120313F5
:100F28009F008030831603139F000800F4000D30E3
:100F3800F300FB30F200F20B9F2FF30B9F2FA42F2F
:100F48008330831203139F057408F20001300310E5
:100F5800F20DFF3E031DAB2F0310720D9F040630E8
:100F6800F3003030F200F20BB72FF30BB72F00006D
:100F7800831203139F149F18C22FC32FBF2F1E085D
:100F8800F100831603131E08F000080083160313EC
:100F980087010C3083120313970007309200FF304B
:100FA8008316031392000A128A118C270A128A11D7
:100FB80000300A128A119A270A128A117108F80059
:100FC8007008F7007808F6007708F5000310F60CAB
:100FD800F50C0310F60CF50C7508F9007608FA0004
:100FE8007908831203139500DC2F0A128A1100284E
:080FF80083010A128A11CA2FBD
:04400E00F12FFF3F50
:00000001FF
