:060000000A128A110C280F
:10000800FE00030EF0000A08F1000A128A11962871
:100018000A128A110F28F90183120313A60183011A
:100028000A128A1117288316031387010C308312CA
:100038000313970007309200FF30831603139200D2
:100048000A128A11B1200A128A110A128A11BF20D3
:100058000A128A1100300A128A1166200A128A11BD
:10006800730883120313A1007208A00001300A125A
:100078008A1166200A128A11730883120313A300D7
:100088007208A2002108F8002008F7000310F80CF5
:10009800F70C0310F80CF70C7708A4007808A500F3
:1000A8002308F8002208F7000310F80CF70C0310D7
:1000B800F80CF70C7708A600240895002E280A12D9
:1000C8008A110C28F6000D30F500FB30F400F40B13
:1000D8006B28F50B6B2870288330831203139F0558
:1000E8007608F40001300310F40DFF3E031D772855
:1000F8000310740D9F040630F5003030F400F40B43
:100108008328F50B83280000831203139F149F187C
:100118008E288F288B281E08F300831603131E08C9
:10012800F20008000B1D99289A28AA280130F9071F
:1001380083120313260879020318A328A428A628E3
:100148000714A7280710FA3081000B1171088A00DC
:10015800700E8300FE0E7E0E09000330831603170F
:10016800880089010130831203139F0080308316B1
:1001780003139F000800831603138101FA308312CA
:0A018800031381008B168B1708008B
:04400E00F12FFF3F50
:00000001FF
