:060000000A128A11FC2F18
:100E2C008316031388018312031388013F30831246
:100E3C00031388000630F2001330F100AD30F000DF
:100E4C00F00B262FF10B262FF20B262F2D2F8312B2
:100E5C00031388010B30F2002630F1005D30F000F6
:100E6C00F00B362FF10B362FF20B362F3D2F0130B6
:100E7C008312031388000630F2001330F100AD30FA
:100E8C00F000F00B472FF10B472FF20B472F4E2F93
:100E9C0002308312031388000630F2001330F10085
:100EAC00AD30F000F00B582FF10B582FF20B582FE0
:100EBC005F2F04308312031388000630F2001330C6
:100ECC00F100AD30F000F00B692FF10B692FF20B34
:100EDC00692F702F08308312031388000630F2003C
:100EEC001330F100AD30F000F00B7A2FF10B7A2FAC
:100EFC00F20B7A2F812F10308312031388000630E7
:100F0C00F2001330F100AD30F000F00B8B2FF10B31
:100F1C008B2FF20B8B2F922F203083120313880010
:100F2C000630F2001330F100AD30F000F00B9C2FC6
:100F3C00F10B9C2FF20B9C2FA32F10308312031359
:100F4C0088000630F2001330F100AD30F000F00BE9
:100F5C00AD2FF10BAD2FF20BAD2FB42F0830831248
:100F6C00031388000630F2001330F100AD30F000AE
:100F7C00F00BBE2FF10BBE2FF20BBE2FC52F043082
:100F8C008312031388000630F2001330F100AD30E9
:100F9C00F000F00BCF2FF10BCF2FF20BCF2FD62F62
:100FAC0002308312031388000630F2001330F10074
:100FBC00AD30F000F00BE02FF10BE02FF20BE02F37
:100FCC00E72F01308312031388000630F200133030
:100FDC00F100AD30F000F00BF12FF10BF12FF20B13
:100FEC00F12FF82F1C2F0A128A11002883010A12E4
:040FFC008A11162F11
:04400E00F12FFF3F50
:00000001FF
