:060000000A128A11EE2F26
:100DDE007E088A007F0882000A128A11EF260A1204
:100DEE008A118000840A04087D0603190034FF0A64
:100DFE000319FE0AF32E8134C134A134913489349F
:100E0E00853483348134FF34993499349934993448
:100E1E00993499346634FF34113411341134113449
:100E2E00013401340134FF340234043408340834FC
:100E3E0004340234FF3483160313860188018312AF
:100E4E00031388018601F201F60108307602031CB5
:100E5E00312F322F332F522F0130F000760A392FD7
:100E6E000310F00DFF3E031D372F7008831203137E
:100E7E0086007608383E8400831300098800063009
:100E8E00F1003030F000F00B4A2FF10B4A2F00002A
:100E9E000130F6072C2F0130F20719307202031CB5
:100EAE00592F5A2F2B2FF301F70108307702031C0D
:100EBE00612F622F632F822F0130F000770A692F86
:100ECE000310F00DFF3E031D672F700883120313EE
:100EDE0086007708303E84008313000988000630B0
:100EEE00F1003030F000F00B7A2FF10B7A2F00006A
:100EFE000130F7075C2F0130F30719307302031C22
:100F0E00892F8A2F5B2FF401F80108307802031C19
:100F1E00912F922F932FB22F0130F000780A992F34
:100F2E000310F00DFF3E031D972F7008831203135D
:100F3E0086007808283E8400831300098800063056
:100F4E00F1003030F000F00BAA2FF10BAA2F0000A9
:100F5E000130F8078C2F0130F40719307402031C8E
:100F6E00B92FBA2F8B2FF501F90108307902031C26
:100F7E00C12FC22FC32FE22F0130F000790AC92FE3
:100F8E000310F00DFF3E031DC72F700883120313CD
:100F9E0086007908203E84008313000988000630FD
:100FAE00F1003030F000F00BDA2FF10BDA2F0000E9
:100FBE000130F907BC2F0130F50719307502031CFB
:100FCE00E92FEA2FBB2F2A2F0A128A11002883132A
:100FDE004030FD000730FE000230FF00203084005C
:100FEE000A128A11F3260A128A1183010A128A1131
:020FFE00222FA0
:04400E00F22FFF3F4F
:00000001FF
