:060000000A128A11FA2F1A
:100D800083160317880189018316031301087F392D
:100D90008100FF3086008701880183120313061942
:100DA000D22ED32EE22EF401F3010430F2000C30E7
:100DB000F1003330F000F00BDB2EF10BDB2EF20BE9
:100DC000DB2EE22E831203130618E72EE82EF82EF0
:100DD0007408013EF4000430F2000C30F1003330AE
:100DE000F000F00BF12EF10BF12EF20BF12EF82E9C
:100DF000831203138618FD2EFE2E202F7408031D68
:100E0000022F032F102F0930F4007308031D092F40
:100E10000A2F0D2F0930F300132F0130F302132F87
:100E20007408FF3EF4000430F2000C30F10033305F
:100E3000F000F00B192FF10B192FF20B192F202FA7
:100E40000A307402031C252F262F2A2F7308013E17
:100E5000F300F4010A307302031C2F2F302F322FBE
:100E6000F301F4017408031D362F372F3B2FFC309C
:100E70008312031388007403031D3F2F402F442F58
:100E8000603083120313880002307406031D492F5B
:100E90004A2F4E2FDA308312031388000330740672
:100EA000031D532F542F582FF23083120313880041
:100EB00004307406031D5D2F5E2F622F663083128F
:100EC0000313880005307406031D672F682F6C2FED
:100ED000B63083120313880006307406031D712F89
:100EE000722F762FBE3083120313880007307406EA
:100EF000031D7B2F7C2F802FE0308312031388008B
:100F000008307406031D852F862F8A2FFE3083122A
:100F10000313880009307406031D8F2F902F942F20
:100F2000F6308312031388007308031D982F992F3E
:100F30009D2FFC308312031387007303031DA12F21
:100F4000A22FA62F6030831203138700023073068E
:100F5000031DAB2FAC2FB02FDA30831203138700A1
:100F600003307306031DB52FB62FBA2FF23083124C
:100F70000313870004307306031DBF2FC02FC42F37
:100F8000663083120313870005307306031DC92FD3
:100F9000CA2FCE2FB6308312031387000630730694
:100FA000031DD32FD42FD82FBE30831203138700F5
:100FB00007307306031DDD2FDE2FE22FE030831292
:100FC0000313870008307306031DE72FE82FEC2F6B
:100FD000FE3083120313870009307306031DF12FBF
:100FE000F22FCD2EF630831203138700CD2E0A1276
:100FF0008A110028F301F40183010A128A11C02E1C
:04400E00F12FFF3F50
:00000001FF
