:060000000A128A11CC2F48
:10000A00080064008001840A040603190034040607
:10001A0007286E30F30017280A128A11F3230A12EE
:10002A008A11F3006E30730603191C281D28112843
:10003A0073080800003083120313AB000030AA00D3
:10004A000030A9000030A80023082204210420045B
:10005A000319302831287C280130AC003F280130B0
:10006A00FD000310A00DA10DA20DA30DFD0B362856
:10007A000130AC07A31F4228432834280130FD0071
:10008A000310A80DA90DAA0DAB0DFD0B45282308D9
:10009A002702031D5A2822082602031D5A2821086E
:1000AA002502031D5A2820082402031C5D285E2805
:1000BA006D282008A4022108031C210FA50222088A
:1000CA00031C220FA6022308031C230FA7022814CD
:1000DA0001300310A30CA20CA10CA00CFF3E031DBF
:1000EA006E280130AC02031D7B287C2843282B088C
:1000FA00A3002A08A2002908A1002808A0000800D5
:10010A007208730403198A288B28912872087304C9
:10011A00031D90289128982870080A128A11052030
:10012A000A128A111E297208093EF400730803187C
:10013A00013E003EF500740884008317751C831382
:10014A000008F600840A0008F70076087704031905
:10015A00AF28B028E2287208093EF4007308031891
:10016A00013E003EF500740884008317751C831352
:10017A000008F600840A0008F7007208023EF80038
:10018A0073080318013E003EF900780884008317BB
:10019A00791C83130008FA00840A0008FB007B0814
:1001AA00803AFC007708803A7C02031DDE28760834
:1001BA007A020318E128E2281E29720884008317AC
:1001CA00731C83130008F400840A0008F5007208FF
:1001DA00023EF60073080318013E003EF700760857
:1001EA0084008317771C831300087407F9007508C5
:1001FA00F8000318F80A801F0329F8037808FA00A0
:10020A007908840083177A1C8313700880007208A7
:10021A00023EF40073080318013E003EF50074081C
:10022A0084008317751C831301308007840A03181E
:10023A00800A08006B308400760883138000840AE1
:10024A0077088000840A78088000840A7908800088
:10025A00840A7A0880000030831203136C06031D97
:10026A00382905306B06031D3B293C294029831692
:10027A00031385015B2900306C06031D46290630ED
:10028A006B06031D49294A294E2983160313860141
:10029A005B2900306C06031D542907306B06031DC9
:1002AA0057295829CB298316031387013430FC00B8
:1002BA00F130FB00FB0B5F29FC0B5F29642903303B
:1002CA000A128A155D260A128A110D30FC00FB30CB
:1002DA00FB00FB0B6E29FC0B6E29732903300A12F3
:1002EA008A155D260A128A112A30FC008D30FB001D
:1002FA00FB0B7D29FC0B7D29822903300A128A1502
:10030A005D260A128A1102300A128A155D260A121D
:10031A008A1102300A128A155D260A128A110830D9
:10032A000A128A155D260A128A1100300A128A15E3
:10033A005D260A128A1106300A128A155D260A12E9
:10034A008A110830FD007D157D08FB00043003107A
:10035A00FB0CFF3E031DAC297B080F390A128A15D4
:10036A005D260A128A117D080F390A128A155D263E
:10037A000A128A1100300A128A155D260A128A1197
:10038A0001300A128A155D260A128A110800F20043
:10039A00721CD029D129E629831203136B08840021
:1003AA0083176C1C83130130F0006E080739013E75
:1003BA00E0290310F00DFF3E031DDE2970088004BA
:1003CA00FB29831203136B08840083176C1C8313A5
:1003DA000130F0006E080739013EF5290310F00DCF
:1003EA00FF3E031DF3297008FF3A8005F21CFE291F
:1003FA00FF29152A6B08840083176C1C83130130AC
:10040A00F0006E0CF100F10C710C0739013E0F2A55
:10041A000310F00DFF3E031D0D2A700880042B2ADD
:10042A006B08840083176C1C83130130F0006E0C78
:10043A00F100F10C710C0739013E252A0310F00D69
:10044A00FF3E031D232A7008FF3A8005721D2E2ADB
:10045A002F2A422A6B08840083176C1C83130130ED
:10046A00F0006F080739013E3C2A0310F00DFF3EE9
:10047A00031D3A2A70088004552A6B0884008317E2
:10048A006C1C83130130F0006F080739013E4F2AB4
:10049A000310F00DFF3E031D4D2A7008FF3A800538
:1004AA00F21D582A592A6F2A6B08840083176C1C7C
:1004BA0083130130F0006F0CF100F10C710C073955
:1004CA00013E692A0310F00DFF3E031D672A7008DA
:1004DA008004852A6B08840083176C1C83130130FF
:1004EA00F0006F0CF100F10C710C0739013E7F2A04
:1004FA000310F00DFF3E031D7D2A7008FF3A8005A8
:10050A0008008312031322088400000884000A12D8
:10051A008A1500200A128A11253A031D952A962A5D
:10052A00D92B220884000130800783160313C001E7
:10053A00C1010030C400FF30C200FF30C300831283
:10054A000313220884000008A700270884000A125F
:10055A008A1500200A128A11643A0319B52AB62AA2
:10056A00C22A270884000A128A1500200A128A1150
:10057A00693A031DC12AC22A4F2B23088400831318
:10058A000008FF00023080077F0884000008A800E6
:10059A00840A0008A900220884002708013E800076
:1005AA002030AC00A91BDA2ADC2A0130DD2A00300F
:1005BA00A6000130AC022C08A03E84000A30F000EC
:1005CA000030F1002908F3002808F2000A128A15FF
:1005DA00B2260A128A117108F7007008F6000A1288
:1005EA008A15AD240A128A117608303E83138000D8
:1005FA000A30F0000030F100831203132908F300D7
:10060A002808F2000A128A1509270A128A117108A3
:10061A0083120313A9007008A800280829040319E3
:10062A00172B182B1D2B2C08031D1C2B1D2BDE2A08
:10063A002C080319212B222B482B26080319262BB9
:10064A00272B482B0130AC022C08A03E84002D3009
:10065A0083138000482B2C08A03E840083130008D3
:10066A00A400A5012408F0002508F1002008F200E2
:10067A002108F3000A128A1185200A128A11013010
:10068A0083120313AC0720302C06031D4D2B4E2B6F
:10069A00302BF22B270884000A128A1500200A122E
:1006AA008A11753A031D5A2B5B2BD22B230884001F
:1006BA0083130008FF00023080077F0884000008C7
:1006CA00A800840A0008A900220884002708013E1D
:1006DA008000C72B2030AC000130AC022C08A03EB1
:1006EA0084000A30F0000030F1002908F3002808DD
:1006FA00F2000A128A154B250A128A117008303E36
:10070A00831380000A30F0000030F10083120313D3
:10071A002908F3002808F2000A128A1583250A120A
:10072A008A11710883120313A9007008A800280807
:10073A0029040319A12BA22BC02B2C08031DA62BBD
:10074A00A72B712BC02B2C08A03E84008313000812
:10075A00A400A5012408F0002508F1002008F200F1
:10076A002108F3000A128A1185200A128A1101301F
:10077A0083120313AC0720302C06031DC52BC62B8E
:10078A00A82BF22B270884000A128A1500200A12C5
:10079A008A11753A03196F2BD22B8312031322087D
:1007AA00840001308007F22B2208840000088400AC
:1007BA000A128A1500200A128A11A400A501240827
:1007CA00F0002508F1002008F2002108F3000A12BF
:1007DA008A1185200A128A11D22B08008312031368
:1007EA000610861406158615061AFC2BFD2B122CEC
:1007FA000230F2000430F100BA30F000F00B032CA2
:10080A00F10B032CF20B032C000083120313061EB8
:10081A000F2C102C0A2C3130962D861A152C162CDA
:10082A002B2C0230F2000430F100BA30F000F00B49
:10083A001C2CF10B1C2CF20B1C2C00008312031332
:10084A00861E282C292C232C3230962D061B2E2C62
:10085A002F2C442C0230F2000430F100BA30F000A0
:10086A00F00B352CF10B352CF20B352C00008312D2
:10087A000313061F412C422C3C2C3330962D861B29
:10088A00472C482C5D2C0230F2000430F100BA30BB
:10089A00F000F00B4E2CF10B4E2CF20B4E2C0000FC
:1008AA0083120313861F5A2C5B2C552C4130962D2C
:1008BA000614861006158615061A642C652C7A2CE1
:1008CA000230F2000430F100BA30F000F00B6B2C69
:1008DA00F10B6B2CF20B6B2C000083120313061E18
:1008EA00772C782C722C3430962D861A7D2C7E2CFF
:1008FA00932C0230F2000430F100BA30F000F00B11
:10090A00842CF10B842CF20B842C00008312031329
:10091A00861E902C912C8B2C3530962D061B962CEE
:10092A00972CAC2C0230F2000430F100BA30F000FF
:10093A00F00B9D2CF10B9D2CF20B9D2C00008312C9
:10094A000313061FA92CAA2CA42C3630962D861B1D
:10095A00AF2CB02CC52C0230F2000430F100BA30B2
:10096A00F000F00BB62CF10BB62CF20BB62C0000F3
:10097A0083120313861FC22CC32CBD2C4230962D22
:10098A000614861406118615061ACC2CCD2CE22CD8
:10099A000230F2000430F100BA30F000F00BD32C30
:1009AA00F10BD32CF20BD32C000083120313061E77
:1009BA00DF2CE02CDA2C3730962D861AE52CE62C23
:1009CA00FB2C0230F2000430F100BA30F000F00BD8
:1009DA00EC2CF10BEC2CF20BEC2C00008312031321
:1009EA00861EF82CF92CF32C3830962D061BFE2C7B
:1009FA00FF2C142D0230F2000430F100BA30F0005E
:100A0A00F00B052DF10B052DF20B052D00008312BD
:100A1A000313061F112D122D0C2D3930962D861B0E
:100A2A00172D182D2D2D0230F2000430F100BA30A6
:100A3A00F000F00B1E2DF10B1E2DF20B1E2D0000E7
:100A4A0083120313861F2A2D2B2D252D4330962D15
:100A5A000614861406158611061A342D352D4A2DCC
:100A6A000230F2000430F100BA30F000F00B3B2DF6
:100A7A00F10B3B2DF20B3B2D000083120313061ED4
:100A8A00472D482D422D2A30962D861A4D2D4E2D52
:100A9A00632D0230F2000430F100BA30F000F00B9E
:100AAA00542DF10B542DF20B542D00008312031315
:100ABA00861E602D612D5B2D3030962D061B662D0E
:100ACA00672D7C2D0230F2000430F100BA30F000BC
:100ADA00F00B6D2DF10B6D2DF20B6D2D00008312B5
:100AEA000313061F792D7A2D742D2330962D861B1C
:100AFA007F2D802D952D0230F2000430F100BA309E
:100B0A00F000F00B862DF10B862DF20B862D0000DE
:100B1A0083120313861F922D932D8D2D4430962D0B
:100B2A006E300800831603138701831203138701AB
:100B3A005430840083160313460883138000840A02
:100B4A0047088000840A48088000840A490880000F
:100B5A00840A4A08800076308400831203135408FA
:100B6A008000840A55088000840A56088000840A96
:100B7A0057088000840A580880000A128A111F2127
:100B8A000A128A1100300A128A155D260A128A117F
:100B9A0001300A128A155D260A128A110A128A156A
:100BAA009E240A128A1183120313E501E601E70162
:100BBA00E801E901DD01DE010A128A110E200A129A
:100BCA008A1183120313EA006A080319ED2DEE2D28
:100BDA00E12D30306A02031CF32DF42D3F2E3A30FA
:100BEA006A020318F92DFA2D3F2E6A080A128A158D
:100BFA006C270A128A11831203136A08D03EE30093
:100C0A00FF3003180030E4005D085E04031D0E2E59
:100C1A000F2E272E6608F1006508F0000A30F20050
:100C2A000030F3000A128A1501250A128A1183126A
:100C3A00031363087007E50064080318640A710760
:100C4A00E600E12D6808F1006708F0000A30F200BA
:100C5A000030F3000A128A1501250A128A1183123A
:100C6A00031363087007E70064080318640A71072E
:100C7A00E800E12D41306A060319442E452E572E0D
:100C8A0042306A0603194A2E4B2E572E43306A0603
:100C9A000319502E512E572E44306A06031D562E24
:100CAA00572E9A2E0130DD000030DE0041306A06F0
:100CBA00031D602E612E692E2B30E9002B300A129B
:100CCA008A156C270A128A114230831203136A06A4
:100CDA00031D702E712E792E2D30E9002D300A1247
:100CEA008A156C270A128A114330831203136A0683
:100CFA00031D802E812E892E2A30E9002A300A12FD
:100D0A008A156C270A128A114430831203136A0661
:100D1A00031D902E912EE12D2F30E9002F300A125B
:100D2A008A156C270A128A11E12D23306A06031DDF
:100D3A009F2EA02EB62F00300A128A155D260A129F
:100D4A008A1101300A128A155D260A128A110830A0
:100D5A000A128A155D260A128A1101300A128A15A8
:100D6A005D260A128A112B30831203136906031DAA
:100D7A00BF2EC02ED22E4430B1000130B200670817
:100D8A006507B30068080318680A6607B4000A1200
:100D9A008A15DE240A128A11922F2D306906031D44
:100DAA00D72ED82EEA2E4430B1000130B20067089F
:100DBA006502B3006808031C680A6602B4000A12D6
:100DCA008A15DE240A128A11922F2A306906031D17
:100DDA00EF2EF02E0D2F4430B1000130B20066081C
:100DEA00F1006508F0006808F3006708F2000A12CB
:100DFA008A1501250A128A11710883120313B40095
:100E0A007008B3000A128A15DE240A128A11922F78
:100E1A002F306906031D122F132F922F6708A00087
:100E2A006808A1000030A11BFF30A200A3006508DA
:100E3A00F0006608F1000030F11BFF30F200F30009
:100E4A000030F7000030F6002730F5001030F400CB
:100E5A000A128A15C5250A128A1173088312031306
:100E6A00A7007208A6007108A5007008A4000A125B
:100E7A008A111F200A128A11831203132308E2001F
:100E8A002208E1002108E0002008DF000030A3006A
:100E9A000030A2002730A1001030A0006208A7008D
:100EAA006108A6006008A5005F08A4000A128A115A
:100EBA001F200A128A11831203132108DA0020085C
:100ECA00D9000030F3000030F2002730F100103072
:100EDA00F0006208F7006108F6006008F5005F0894
:100EEA00F4000A128A150B260A128A117108831253
:100EFA000313DC007008DB004430B1000F30B2008D
:100F0A005A08B4005908B3005C08B6005B08B5007B
:100F1A000A128A15DE240A128A114430F6000A12CD
:100F2A008A15BE240A128A110A128A110E200A127E
:100F3A008A11003A0319A22FA32F992F00300A12FF
:100F4A008A155D260A128A1101300A128A155D264F
:100F5A000A128A1183120313E501E601E701E80187
:100F6A00DE2D2A306A06031DBB2FBC2FE12D00306F
:100F7A000A128A155D260A128A1101300A128A1586
:100F8A005D260A128A11AF2F0A128A1100288316C7
:100F9A0003130A128A1599240A128A11C6000A1220
:100FAA008A159A240A128A11C7000A128A159B24E2
:100FBA000A128A11C8000A128A159C240A128A1176
:100FCA00C9000A128A159D240A128A11CA008313BB
:100FDA00A0308400C6300A128A1106200A128A1129
:100FEA0083120313EB01EC01ED01EE01EF01830122
:100FFA000A128A11972D08308A000408840A820787
:10100A00003452346534733470347534653473344F
:10101A00743461343A34203425346434003452341C
:10102A006534733470343A342034253475342E34AC
:06103A002534753400347A
:10193200073400341A342C343E34831203138601E4
:10194200F0308316031386008316031789017F3054
:101952008316031381050800F71BB02CB12CB22C9F
:10196200BD2C7609F8007709F900F80A0319F90A7B
:101972007808F6007908F7000800F801F901D22C7E
:1019820078087607F7007708840000080A128A159B
:101992006C270A128A150130F8070318F90A003079
:1019A200F90778087607F7007708840083130008A0
:1019B200031DDC2CDD2CC12C0800333083120313F1
:1019C200B8003108B9000030BA00BB01BC01C20145
:1019D200C3013930AD000030AE003208AF003830FC
:1019E200B0000A128A1526250A128A1583120313D9
:1019F2003B083107B70037088400831380010800D1
:101A0200F401F501701C062D072D0D2D7208F40747
:101A12000318F50A7308F50701300310F20DF30DF0
:101A2200FF3E031D0E2D01300310F10CF00CFF3EA2
:101A3200031D152D70087104031D202D212D032D6A
:101A42007508F1007408F0000800831203132F08D0
:101A5200FD003A2D831203132D08A0002E08A100C9
:101A62007D30A2003008A3000A128A1186220A12CF
:101A72008A157D0884000A128A1500200A128A1526
:101A8200003A031D452D462D2B2D83120313AD0164
:101A9200AE010800700871040319502D512D7E2DDE
:101AA2000130F4005D2D01300310F00DF10DFF3E09
:101AB200031D552D0130F407F11F602D612D542DAA
:101AC20071087302031D672D70087202031C6A2DD0
:101AD2006B2D712D7008F2027108031CF303F302DF
:101AE20001300310F10CF00CFF3E031D722D01308A
:101AF200F402031D7D2D7E2D612D7308F100720805
:101B0200F0000800F401F5017008710403198A2D30
:101B12008B2DC02D0130F600972D01300310F00DF2
:101B2200F10DFF3E031D8F2D0130F607F11F9A2D97
:101B32009B2D8E2D01300310F40DF50DFF3E031D7C
:101B42009C2D71087302031DA82D70087202031CDC
:101B5200AB2DAC2DB32D7008F2027108031CF303F8
:101B6200F302741401300310F10CF00CFF3E031D5C
:101B7200B42D0130F602031DBF2DC02D9B2D75081B
:101B8200F1007408F00008000030FC000030FB0097
:101B92000030FA000030F900701CD02DD12DE82D54
:101BA2007408F907750803110318013E0319DA2DA9
:101BB200FA07760803110318013E0319E12DFB070A
:101BC200770803110318013E0319E82DFC070130C1
:101BD200F8000310F40DF50DF60DF70DF80BEA2DD4
:101BE20001300310F30CF20CF10CF00CFF3E031D5C
:101BF200F22D7308720471047004031D012E022E6B
:101C0200CD2D7C08F3007B08F2007A08F1007908F8
:101C1200F000080073087204710470040319122E94
:101C2200132E542E0130F900212E0130F80003103A
:101C3200F00DF10DF20DF30DF80B182E0130F9072E
:101C4200F31F242E252E162E73087702031D332E22
:101C520072087602031D332E71087502031D332E9E
:101C620070087402031C362E372E452E7008F402BB
:101C72007108031C710FF5027208031C720FF60241
:101C82007308031C730FF70201300310F30CF20CFC
:101C9200F10CF00CFF3E031D462E0130F902031D2C
:101CA200532E542E252E7708F3007608F20075087D
:101CB200F1007408F0000800F500831203136B08AA
:101CC200840083176C1C83130130F3006D080739FD
:101CD200013E6D2E0310F30DFF3E031D6B2E7308A4
:101CE200FF3A800575080A128A11CC210A128A1558
:101CF200831203136B08840083176C1C8313013057
:101D0200F3006D0CF400F40C740C0739013E8B2EB9
:101D12000310F30DFF3E031D892E730880040B3060
:101D2200F4006230F300F30B942EF40B942E0000B7
:101D3200831203136B08840083176C1C8313013016
:101D4200F3006D0CF400F40C740C0739013EAB2E59
:101D52000310F30DFF3E031DA92E7308FF3A800501
:101D62000800F501F31FB62EB72EBE2EF209F309B5
:101D7200F20A0319F30A0130F500F11FC12EC22E37
:101D8200C72EF009F109F00A0319F10A700871046B
:101D92000319CC2ECD2EFA2E0130F400D92E0130AB
:101DA2000310F00DF10DFF3E031DD12E0130F4079B
:101DB200F11FDC2EDD2ED02E71087302031DE32EDF
:101DC20070087202031CE62EE72EED2E7008F20256
:101DD2007108031CF303F30201300310F10CF00C41
:101DE200FF3E031DEE2E0130F402031DF92EFA2EE2
:101DF200DD2E75080319FE2EFF2E042FF209F309BA
:101E0200F20A0319F30A7308F1007208F0000800DD
:101E1200F501F11F0D2F0E2F152FF009F109F00A10
:101E22000319F10A0130F500F31F182F192F202F83
:101E3200F209F309F20A0319F30A0130F506F60171
:101E4200F701700871040319272F282F5D2F013025
:101E5200F400342F01300310F00DF10DFF3E031D8D
:101E62002C2F0130F407F11F372F382F2B2F013081
:101E72000310F60DF70DFF3E031D392F7108730293
:101E8200031D452F70087202031C482F492F502F43
:101E92007008F2027108031CF303F3027614013096
:101EA2000310F10CF00CFF3E031D512F0130F40220
:101EB200031D5C2F5D2F382F75080319612F622FC8
:101EC200672FF609F709F60A0319F70A7708F100EE
:101ED2007608F0000800F500831203136B088400F3
:101EE20083176C1C83130130F3006D080739013E20
:101EF2007C2F0310F30DFF3E031D7A2F730880041D
:101F02007508F30004300310F30CFF3E031D842F09
:101F120073080F390A128A11CC210A128A15831208
:101F220003136B08840083176C1C83130130F300C6
:101F32006D0CF400F40C740C0739013EA22F03104F
:101F4200F30DFF3E031DA02F730880041A30F30027
:101F5200F30BA92F0000831203136B08840083176D
:101F62006C1C83130130F3006D0CF400F40C740C40
:101F72000739013EBE2F0310F30DFF3E031DBC2F98
:101F82007308FF3A800575080F390A128A11CC21AD
:101F92000A128A15831203136B08840083176C1CC0
:101FA20083130130F3006D0CF400F40C740C073948
:101FB200013EDD2F0310F30DFF3E031DDB2F7308DF
:101FC20080041A30F300F30BE42F00008312031392
:101FD2006B08840083176C1C83130130F3006D0CB3
:101FE200F400F40C740C0739013EF92F0310F30DC1
:0E1FF200FF3E031DF72F7308FF3A800508001D
:04400E00F12FFF3F50
:00000001FF
