:060000000A128A11D82F3C
:10067A00073400341A342C343E34831203138601AF
:10068A00F0308316031386008316031789017F301F
:10069A0083160313810508006E30F3005A2B0A12E1
:1006AA008A1134260A128A11F3006E30730603196E
:1006BA005F2B602B542B73080800F5008312031379
:1006CA00270884008317281C83130130F3002908A4
:1006DA000739013E722B0310F30DFF3E031D702BE9
:1006EA007308FF3A800575080A128A117A250A12D8
:1006FA008A1183120313270884008317281C831383
:10070A000130F300290CF400F40C740C0739013E93
:10071A00902B0310F30DFF3E031D8E2B73088004EC
:10072A000B30F4006230F300F30B992BF40B992B86
:10073A00000083120313270884008317281C8313DD
:10074A000130F300290CF400F40C740C0739013E53
:10075A00B02B0310F30DFF3E031DAE2B7308FF3AB7
:10076A008005080083160313870183120313870188
:10077A00213084002D0883138000840A2E0880000B
:10078A00840A2F088000840A30088000840A31080D
:10079A0080007630840021088000840A22088000C4
:1007AA00840A23088000840A24088000840A250811
:1007BA0080000A128A11CD240A128A1100300A1204
:1007CA008A1162230A128A1101300A128A116223DB
:1007DA000A128A110A128A1142230A128A110A1269
:1007EA008A1151230A128A1183120313A6002C08B4
:1007FA00803EA00004300310A00CFF3E031D002C15
:10080A0020080F390A128A1162230A128A118312E6
:10081A0003132C08803E0F390A128A1162230A1226
:10082A008A118312031326080A128A1139240A121A
:10083A008A11013083120313AC0710302C02031CF7
:10084A00272C282CF42BAC0100300A128A116223BF
:10085A000A128A1101300A128A1162230A128A11B3
:10086A00F42B0A128A110028F500831203132708B1
:10087A0084008317281C83130130F30029080739E1
:10088A00013E492C0310F30DFF3E031D472C73084C
:10089A0080047508F30004300310F30CFF3E031DB7
:1008AA00512C73080F390A128A117A250A128A11F1
:1008BA0083120313270884008317281C831301302B
:1008CA00F300290CF400F40C740C0739013E6F2C68
:1008DA000310F30DFF3E031D6D2C730880041A30BC
:1008EA00F300F30B762C000083120313270884000D
:1008FA008317281C83130130F300290CF400F40C2D
:10090A00740C0739013E8B2C0310F30DFF3E031DB7
:10091A00892C7308FF3A800575080F390A128A1163
:10092A007A250A128A11831203132708840083176F
:10093A00281C83130130F300290CF400F40C740C06
:10094A000739013EAA2C0310F30DFF3E031DA82C04
:10095A00730880041A30F300F30BB12C00008312E1
:10096A000313270884008317281C83130130F3001C
:10097A00290CF400F40C740C0739013EC62C031040
:10098A00F30DFF3E031DC42C7308FF3A80050800CF
:10099A0027308400760883138000840A7708800051
:1009AA00840A78088000840A79088000840A7A0810
:1009BA0080000030831203132806031DE62C05303D
:1009CA002706031DE92CEA2CEE2C83160313850156
:1009DA00092D00302806031DF42C06302706031DB6
:1009EA00F72CF82CFC2C831603138601092D0030F2
:1009FA002806031D022D07302706031D052D062D87
:100A0A00792D8316031387013430FC00F130FB0083
:100A1A00FB0B0D2DFC0B0D2D122D03300A128A1122
:100A2A0062230A128A110D30FC00FB30FB00FB0B1B
:100A3A001C2DFC0B1C2D212D03300A128A11622356
:100A4A000A128A112A30FC008D30FB00FB0B2B2D79
:100A5A00FC0B2B2D302D03300A128A1162230A1245
:100A6A008A1102300A128A1162230A128A1102308A
:100A7A000A128A1162230A128A1108300A128A118A
:100A8A0062230A128A1100300A128A1162230A1298
:100A9A008A1106300A128A1162230A128A11083050
:100AAA00FD007D157D08FB0004300310FB0CFF3EA2
:100ABA00031D5A2D7B080F390A128A1162230A1262
:100ACA008A117D080F390A128A1162230A128A11C1
:100ADA0000300A128A1162230A128A1101300A129C
:100AEA008A1162230A128A110800F200721C7E2DF2
:100AFA007F2D942D83120313270884008317281C43
:100B0A0083130130F0002A080739013E8E2D0310A5
:100B1A00F00DFF3E031D8C2D70088004A92D831251
:100B2A000313270884008317281C83130130F0005D
:100B3A002A080739013EA32D0310F00DFF3E031DBD
:100B4A00A12D7008FF3A8005F21CAC2DAD2DC32DE6
:100B5A00270884008317281C83130130F0002A0C0D
:100B6A00F100F10C710C0739013EBD2D0310F00D97
:100B7A00FF3E031DBB2D70088004D92D2708840071
:100B8A008317281C83130130F0002A0CF100F10CA2
:100B9A00710C0739013ED32D0310F00DFF3E031DE2
:100BAA00D12D7008FF3A8005721DDC2DDD2DF02D48
:100BBA00270884008317281C83130130F0002B08B0
:100BCA000739013EEA2D0310F00DFF3E031DE82D03
:100BDA0070088004032E270884008317281C8313B7
:100BEA000130F0002B080739013EFD2D0310F00DEE
:100BFA00FF3E031DFB2D7008FF3A8005F21D062EED
:100C0A00072E1D2E270884008317281C8313013002
:100C1A00F0002B0CF100F10C710C0739013E172E74
:100C2A000310F00DFF3E031D152E70088004332EAD
:100C3A00270884008317281C83130130F0002B0C2B
:100C4A00F100F10C710C0739013E2D2E0310F00D45
:100C5A00FF3E031D2B2E7008FF3A80050800831201
:100C6A0003130610861406158615061A3D2E3E2E07
:100C7A00532E0230F2000430F100BA30F000F00BCB
:100C8A00442EF10B442EF20B442E00008312031360
:100C9A00061E502E512E4B2E3130D72F861A562E25
:100CAA00572E6C2E0230F2000430F100BA30F000F8
:100CBA00F00B5D2EF10B5D2EF20B5D2E0000831200
:100CCA000313861E692E6A2E642E3230D72F061B16
:100CDA006F2E702E852E0230F2000430F100BA30E9
:100CEA00F000F00B762EF10B762EF20B762E00002A
:100CFA0083120313061F822E832E7D2E3330D72FA5
:100D0A00861B882E892E9E2E0230F2000430F100B6
:100D1A00BA30F000F00B8F2EF10B8F2EF20B8F2EC4
:100D2A00000083120313861F9B2E9C2E962E4130A1
:100D3A00D72F0614861006158615061AA52EA62E76
:100D4A00BB2E0230F2000430F100BA30F000F00B92
:100D5A00AC2EF10BAC2EF20BAC2E00008312031357
:100D6A00061EB82EB92EB32E3430D72F861ABE2EB1
:100D7A00BF2ED42E0230F2000430F100BA30F00057
:100D8A00F00BC52EF10BC52EF20BC52E00008312F7
:100D9A000313861ED12ED22ECC2E3530D72F061B0A
:100DAA00D72ED82EED2E0230F2000430F100BA30E0
:100DBA00F000F00BDE2EF10BDE2EF20BDE2E000021
:100DCA0083120313061FEA2EEB2EE52E3630D72F99
:100DDA00861BF02EF12E062F0230F2000430F100AD
:100DEA00BA30F000F00BF72EF10BF72EF20BF72EBC
:100DFA00000083120313861F032F042FFE2E423096
:100E0A00D72F0614861406118615061A0D2F0E2FD3
:100E1A00232F0230F2000430F100BA30F000F00B58
:100E2A00142FF10B142FF20B142F0000831203134B
:100E3A00061E202F212F1B2F3730D72F861A262F39
:100E4A00272F3C2F0230F2000430F100BA30F000B4
:100E5A00F00B2D2FF10B2D2FF20B2D2F00008312EB
:100E6A000313861E392F3A2F342F3830D72F061BFB
:100E7A003F2F402F552F0230F2000430F100BA30D4
:100E8A00F000F00B462FF10B462FF20B462F000015
:100E9A0083120313061F522F532F4D2F3930D72F8A
:100EAA00861B582F592F6E2F0230F2000430F100A2
:100EBA00BA30F000F00B5F2FF10B5F2FF20B5F2FB0
:100ECA00000083120313861F6B2F6C2F662F43308B
:100EDA00D72F0614861406158611061A752F762F33
:100EEA008B2F0230F2000430F100BA30F000F00B20
:100EFA007C2FF10B7C2FF20B7C2F00008312031343
:100F0A00061E882F892F832F2A30D72F861A8E2FD5
:100F1A008F2FA42F0230F2000430F100BA30F00013
:100F2A00F00B952FF10B952FF20B952F00008312E2
:100F3A000313861EA12FA22F9C2F3030D72F061BFA
:100F4A00A72FA82FBD2F0230F2000430F100BA30CB
:100F5A00F000F00BAE2FF10BAE2FF20BAE2F00000C
:100F6A0083120313061FBA2FBB2FB52F2330D72F97
:100F7A00861BC02FC12FD62F0230F2000430F10099
:100F8A00BA30F000F00BC72FF10BC72FF20BC72FA7
:100F9A00000083120313861FD32FD42FCE2F443081
:100FAA00D72F6E3008000A128A113D230A128A11BD
:100FBA00AD000A128A113E230A128A11AE000A12E1
:100FCA008A113F230A128A11AF000A128A1140239A
:100FDA000A128A11B0000A128A1141230A128A11CE
:100FEA00B100A701A801A901AA01AB01AC018301C3
:060FFA000A128A11B72B58
:04400E00F12FFF3F50
:00000001FF
