:060000000A128A110C280F
:10000800FE00030EF0000A08F1000A128A11F22914
:100018000A128A110F2883133C30FD000230FE00BB
:100028001D30FF00323084000A128A110E220A1293
:100038008A11BC0183010A128A1122288316031728
:10004800880189018316031301087F39810088011B
:100058008701FF3086008B170B16011383120313D9
:10006800B001B101E830F2000330F300831203134A
:100078003108F5003008F4000A128A1136210A12F4
:100088008A11730883120313A7007208A6000A30A6
:10009800A0000030A1006430F2000030F300310805
:1000A800F5003008F4000A128A1136210A128A1162
:1000B800730883120313A3007208A2000A128A119C
:1000C80099210A128A11831203132108A900200812
:1000D800A8000A30A0000030A1000A30F200003069
:1000E800F3003108F5003008F4000A128A113621AD
:1000F8000A128A11730883120313A3007208A2005C
:100108000A128A1199210A128A11831203132108EB
:10011800AB002008AA000A30A0000030A100310876
:10012800A3003008A2000A128A1199210A128A1122
:10013800831203132108AD002008AC00AE01AF0103
:10014800F7308312031387002608323E8400831396
:1001580000088800033083120313A5009730A40019
:10016800A40BB428A50BB428FB3083120313870013
:100178002808323E84008313000888000330831265
:100188000313A5009730A400A40BC828A50BC82802
:10019800FD308312031387002A08323E840083133C
:1001A80000088800033083120313A5009730A400C9
:1001B800A40BDC28A50BDC28FE3083120313870070
:1001C8002C08323E84008313000888000330831211
:1001D8000313A5009730A400A40BF028A50BF02862
:1001E800013083120313AE070318AF0A0030AF07BC
:1001F8002F08803AFF0080307F02031D05290F3049
:100208002E02031C08290929A428831203133C0879
:1002180003190F2910291F29FF30B0070318B10A45
:10022800FF30B107B11F19291A2936280F30B0003D
:100238002730B10036280130B0070318B10A003062
:10024800B1073108803AFF00A7307F02031D2E292D
:1002580010303002031C31293229362832280A127C
:100268008A110C28F701F31F3A293B294229F20980
:10027800F309F20A0319F30A0130F700F51F4529BB
:1002880046294D29F409F509F40A0319F50A01303C
:10029800F706F801F901720873040319542955295E
:1002A8008A290130F600612901300310F20DF30D9F
:1002B800FF3E031D59290130F607F31F64296529FC
:1002C800582901300310F80DF90DFF3E031D66296A
:1002D80073087502031D722972087402031C7529BC
:1002E80076297D297208F4027308031CF503F502C8
:1002F800781401300310F30CF20CFF3E031D7E2925
:100308000130F602031D89298A296529770803190E
:100318008E298F299429F809F909F80A0319F90A85
:100328007908F3007808F2000800FB018312031330
:10033800A31F9F29A029A729A209A309A20A031973
:10034800A30A0130FB00A11FAA29AB29B029A009E3
:10035800A109A00A0319A10A200821040319B52933
:10036800B629E3290130FA00C22901300310A00D93
:10037800A10DFF3E031DBA290130FA07A11FC529A7
:10038800C629B92921082302031DCC2920082202E5
:10039800031CCF29D029D6292008A2022108031C32
:1003A800A303A30201300310A10CA00CFF3E031D00
:1003B800D7290130FA02031DE229E329C6297B085F
:1003C8000319E729E829ED29A209A309A20A0319B3
:1003D800A30A2308A1002208A00008008B1CF52905
:1003E800F629032A8B108B13831203133C08031975
:1003F800FE29002A0130012A0030BC008B17710841
:100408008A00700E8300FE0E7E0E09007E088A00A8
:100418007F0882000A128A110A220A128A118000B1
:10042800840A04087D0603190034FF0A0319FE0A2A
:100438000E2A3F3406345B344F3466346D347D34D1
:0604480007347F34673425
:04400E00F12FFF3F50
:00000001FF
