:060000000A128A110E280D
:10000800FE00030EF5000A08F6007F08F7000A1242
:100018008A11FB280A128A11112883132A30FD003D
:100028000130FE002330FF00203084000A128A11BC
:1000380014210A128A1183010A128A117C28831258
:100048000313AF01AD1F29282A283128AC09AD09AF
:10005800AC0A0319AD0A0130AF00AB1F34283528AC
:100068003A28AA09AB09AA0A0319AB0A2A082B04D9
:1000780003193F2840286D280130AE004C28013074
:100088000310AA0DAB0DFF3E031D44280130AE0737
:10009800AB1F4F28502843282B082D02031D562834
:1000A8002A082C02031C59285A2860282A08AC025E
:1000B8002B08031CAD03AD0201300310AB0CAA0CD6
:1000C800FF3E031D61280130AE02031D6C286D2818
:1000D80050282F080319712872287728AC09AD0910
:1000E800AC0A0319AD0A2D08AB002C08AA000800B9
:1000F80083160317880189018316031301087F39C2
:10010800810087018801FF3086008312031387016D
:100118008801B3018B170B1683160313011383127F
:1001280003133308203E84008313000888000A3034
:10013800AA000030AB003308013EAC0000300318C1
:100148000130AD000A128A1123200A128A11831283
:1001580003132A08B300063083120313B2001330C6
:10016800B100AD30B000B00BB728B10BB728B20B57
:10017800B72893280A128A110E28F301F401730C88
:1001880083120313031C0710031807140630F20028
:100198001330F100AD30F000F00BD028F10BD0286F
:1001A800F20BD028D7288312031307100630F20069
:1001B8001330F100AD30F000F00BE028F10BE0282F
:1001C800F20BE028E7280130F3070318F40A00309F
:1001D800F4077408803AFF0080307F02031DF62878
:1001E80004307302031CF928FA28C32808008B1C62
:1001F800FE28FF2807298B130A128A11C1200A1228
:100208008A118B178B107708FF0076088A00750E05
:100218008300FE0E7E0E09007E088A007F08820099
:100228000A128A1110210A128A118000840A04080D
:100238007D0603190034FF0A0319FE0A14293F3406
:1002480006345B344F3466346D347D3407347F3480
:02025800673409
:04400E00F12FFF3F50
:00000001FF
