:060000000A128A110C280F
:10000800FE00030EF4000A08F5000A128A116B2993
:100018000A128A110F28F801F901FA0183010A125C
:100028008A1116288316031387100A128A11B3211E
:100038000A128A110A128A11A2210A128A110C3094
:1000480083120313970007309200FF3083160313BF
:10005800920000300A128A1134210A128A1183127E
:1000680003132108BE002008BD003E08BC003D085F
:10007800BB000310BC0CBB0C0310BC0CBB0C3B0836
:1000880095003D080339BB00BB0E17083B06CF3966
:100098003B0697000030B0000030AF000330AE00E0
:1000A800FF30AD003D08A0003E08A100A201A30159
:1000B8000030A7000030A6000130A500C230A4001F
:1000C8000A128A11EC200A128A11831203132308D8
:1000D800B4002208B3002108B2002008B1000A12B7
:1000E8008A1186200A128A11831203132D08963E5C
:1000F800F8002E080318013E003EF9002D280A12C8
:100108008A110C28003083120313B9000030B8009C
:100118000030B7000030B60030082F042E042D043C
:10012800031997289828E3280130BA00A628013037
:10013800B5000310AD0DAE0DAF0DB00DB50B9D287C
:100148000130BA07B01FA928AA289B280130B5009A
:100158000310B60DB70DB80DB90DB50BAC283008A6
:100168003402031DC1282F083302031DC1282E089D
:100178003202031DC1282D083102031CC428C528DA
:10018800D4282D08B1022E08031C2E0FB2022F0806
:10019800031C2F0FB3023008031C300FB4023614AF
:1001A80001300310B00CAF0CAE0CAD0CFF3E031DBC
:1001B800D5280130BA02031DE228E328AA28390805
:1001C800B0003808AF003708AE003608AD000800A8
:1001D800003083120313AC000030AB000030AA00DB
:1001E8000030A900201CF928FA2811292408A90799
:1001F800250803110318013E03190329AA07260835
:1002080003110318013E03190A29AB072708031134
:100218000318013E03191129AC070130A800031087
:10022800A40DA50DA60DA70DA80B132901300310C9
:10023800A30CA20CA10CA00CFF3E031D1B29230834
:10024800220421042004031D2A292B29F6282C081E
:10025800A3002B08A2002A08A1002908A000080072
:1002680083120313A4000D3083120313A300FB3081
:10027800A200A20B3D29A30B3D298330831203134F
:100288009F052408A20001300310A20DFF3E031DA4
:1002980048290310220D9F04063083120313A3007C
:1002A8002F30A200A20B5629A30B56295B298312D3
:1002B80003139F149F18612962295E291E08A10053
:1002C800831603131E0883120313A0000800831269
:1002D80003130C1C702971299B290C107908F7004D
:1002E8007808F6007A08031D7A297B298D29871456
:1002F800F001F10176087002F2007708031C770A12
:100308007102F30072088E0073088F000130FA0042
:100318009B2987107608783EF00077080318013E7D
:10032800EC3EF10070088E0071088F00FA01750824
:100338008A00740E8300FE0E7E0E0900313083128F
:1003480003139000EC308F0078308E00831603136F
:100358000C14831203130C100B178B1708000130B1
:1003680083160317880089010130831203139F0045
:0A0378008030831603139F00080075
:04400E00F12FFF3F50
:00000001FF
