:060000000A128A110C280F
:10000800FE00030EF4000A08F5000A128A11C62938
:100018000A128A110F28F801F901FA0183010A125C
:100028008A111628831603138701831203130711F5
:10003800FA017730F8000130F9000A128A11FF211D
:100048000A128A1183120313BD01BE010030831204
:100058000313B0000030AF000030AE00B430AD0084
:100068003D08A0003E08A1000030A11BFF30A200FF
:10007800A3000030A7000030A6000030A500A03083
:10008800A4000A128A117E210A128A11831203130C
:100098002308B4002208B3002108B2002008B100E8
:1000A8000A128A1118210A128A11831203132D08C1
:1000B8005A3EF8002E080318013E003EF9000030B1
:1000C8007902FA300319780203186B286C28702813
:1000D800FA30F8000030F90001307902F5300319E0
:1000E8007802031C782879287D28F430F80001303C
:1000F800F900823083120313BC00DD30BB00BB0B58
:100108008328BC0B8328023083120313BD0703180E
:10011800BE0A0030BE073E08803AFF0080307F02EA
:10012800031D9828B5303D02031C9B289C282A28CB
:10013800B43083120313BD000030BE0000308312B8
:100148000313B0000030AF000030AE00B430AD0093
:100158003D08A0003E08A1000030A11BFF30A2000E
:10016800A3000030A7000030A6000030A500A03092
:10017800A4000A128A117E210A128A11831203131B
:100188002308B4002208B3002108B2002008B100F7
:100198000A128A1118210A128A11831203132D08D0
:1001A8005A3EF8002E080318013E003EF9000030C0
:1001B8007902FA30031978020318E328E428E828BA
:1001C800FA30F8000030F90001307902F5300319EF
:1001D8007802031CF028F128F528F430F8000130E3
:1001E800F900823083120313BC00DD30BB00BB0B67
:1001F800FB28BC0BFB28FE3083120313BD07031832
:10020800BE0AFF30BE073E08803AFF0080307F02FA
:10021800031D102903303D02031813291429A228AD
:1002280026280A128A110C28003083120313B900F9
:100238000030B8000030B7000030B60030082F0496
:100248002E042D04031929292A2975290130BA00F9
:1002580038290130B5000310AD0DAE0DAF0DB00D4E
:10026800B50B2F290130BA07B01F3B293C292D298E
:100278000130B5000310B60DB70DB80DB90DB50BAB
:100288003E2930083402031D53292F083302031D69
:1002980053292E083202031D53292D083102031C4D
:1002A8005629572966292D08B1022E08031C2E0F3E
:1002B800B2022F08031C2F0FB3023008031C300FA3
:1002C800B402361401300310B00CAF0CAE0CAD0CF8
:1002D800FF3E031D67290130BA02031D74297529E1
:1002E8003C293908B0003808AF003708AE00360896
:1002F800AD000800003083120313AC000030AB00DF
:100308000030AA000030A900201C8B298C29A329C1
:100318002408A907250803110318013E0319952984
:10032800AA07260803110318013E03199C29AB07E5
:10033800270803110318013E0319A329AC0701304C
:10034800A8000310A40DA50DA60DA70DA80BA5299F
:1003580001300310A30CA20CA10CA00CFF3E031D3E
:10036800AD292308220421042004031DBC29BD292A
:1003780088292C08A3002B08A2002A08A100290814
:10038800A0000800831203130C1CCB29CC29F829E0
:100398000C108B137908F7007808F6008B177A0889
:1003A800031DD729D829EA290715F001F101760894
:1003B8007002F2007708031C770A7102F3007208D2
:1003C8008E0073088F000130FA00F82907117608AB
:1003D800783EF00077080318013EEC3EF100700803
:1003E8008E0071088F00FA0175088A00740E830068
:1003F800FE0E7E0E0900831203130711FA01313035
:100408009000EC308F0078308E00831603130C14A4
:0C041800831203130C100B178B17080045
:04400E00F12FFF3F50
:00000001FF
