:060000000A128A110C280F
:10000800FE00030EF0000A08F1000A128A11862D7C
:100018000A128A110F280A128A11AA250A128A11AD
:10002800B9000A128A11AB250A128A11BA000A12FB
:100038008A11AC250A128A11BB000A128A11AD2551
:100048000A128A11BC000A128A11AE250A128A11F4
:10005800BD00B401B501B601B701B801FB018301C8
:100068000A128A1137288316031788018901831613
:10007800031301087F39810088018701FF3086005A
:100088008B170B1601130A128A119C250A128A1162
:100098002730840083120313390883138000840AED
:1000A8003A088000840A3B088000840A3C088000E3
:1000B800840A3D0880002030840027088000840AD4
:1000C80028088000840A29088000840A2A088000F9
:1000D800840A2B0880000A128A114C230A128A11FA
:1000E800013083120313B0000030B1000130B200B8
:1000F8000030B3000C300A128A11E3240A128A1164
:1001080001300A128A11E3240A128A1100300A12F5
:100118008A11F9230A128A11823083120313A60066
:10012800DD30A500A50B9628A60B9628831203138D
:1001380006189F28A028A9280930F80000300A12BC
:100148008A118D240A128A11B1281130F800003062
:100158000A128A118D240A128A1100300A128A1191
:1001680038250A128A11730883120313AD00720826
:10017800AC0001300A128A1138250A128A11730854
:1001880083120313AF007208AE0002302F02013051
:1001980003192E02031CD128D228D7280130B00019
:1001A8000030B100E22801302F02FE3003192E0280
:1001B8000318DF28E028E228B001B10102302D023F
:1001C800013003192C02031CEA28EB28B829013056
:1001D800B2070318B30A0030B30700300A128A11B5
:1001E800E3240A128A1101300A128A11E3240A123E
:1001F8008A118312031330083104031D04290529C9
:1002080026293208803EA50033080318013E003E27
:10021800A60004300310A60CA50CFF3E031D0E29F2
:1002280025080F390A128A11E3240A128A11831247
:1002380003133208803E0F390A128A11E3240A1286
:100248008A119C2930033104031D2B292C294D299F
:100258003208C03EA50033080318013E003EA60040
:1002680004300310A60CA50CFF3E031D35292508F4
:100278000F390A128A11E3240A128A11831203130E
:100288003208C03E0F390A128A11E3240A128A1171
:100298009C29023030063104031D5329542975293D
:1002A8003208943EA50033080318013E003EA6001C
:1002B80004300310A60CA50CFF3E031D5D2925087C
:1002C8000F390A128A11E3240A128A1183120313BE
:1002D8003208943E0F390A128A11E3240A128A114D
:1002E8009C29033030063104031D7B297C299C2975
:1002F8003208D43EA50033080318013E003EA6008C
:1003080004300310A60CA50CFF3E031D8529250803
:100318000F390A128A11E3240A128A11831203136D
:100328003208D43E0F390A128A11E3240A128A11BC
:1003380000300A128A11F9230A128A1182308312B4
:100348000313A600DD30A500A50BA829A60BA82934
:100358000F308312031332063304031DB429B52961
:100368009A28B201B3019A2801302D02FE300319F0
:100378002C020318C029C1299A280130B202003082
:10038800031CB303B30200300A128A11E3240A12D1
:100398008A1101300A128A11E3240A128A1183127F
:1003A800031330083104031DDA29DB29FC2932083C
:1003B800803EA50033080318013E003EA600043025
:1003C8000310A60CA50CFF3E031DE42925080F39D0
:1003D8000A128A11E3240A128A11831203133208BB
:1003E800803E0F390A128A11E3240A128A11722AEE
:1003F80030033104031D012A022A232A3208C03E91
:10040800A50033080318013E003EA600043003107F
:10041800A60CA50CFF3E031D0B2A25080F390A124E
:100428008A11E3240A128A11831203133208C03E88
:100438000F390A128A11E3240A128A11722A023029
:1004480030063104031D292A2A2A4B2A3208943EF1
:10045800A50033080318013E003EA600043003102F
:10046800A60CA50CFF3E031D332A25080F390A12D6
:100478008A11E3240A128A11831203133208943E64
:100488000F390A128A11E3240A128A11722A0330D8
:1004980030063104031D512A522A722A3208D43EEA
:1004A800A50033080318013E003EA60004300310DF
:1004B800A60CA50CFF3E031D5B2A25080F390A125E
:1004C8008A11E3240A128A11831203133208D43ED4
:1004D8000F390A128A11E3240A128A1100300A120B
:1004E8008A11F9230A128A11823083120313A60093
:1004F800DD30A500A50B7E2AA60B7E2A83120313E6
:1005080032083304031D892A8A2A9A280F30B20038
:100518000030B3009A280A128A110C28F400741CBF
:10052800962A972AAC2A8312031334088400831767
:10053800351C83130130F20037080739013EA62A1B
:100548000310F20DFF3E031DA42A72088004C12A7D
:1005580083120313340884008317351C8313013076
:10056800F20037080739013EBB2A0310F20DFF3E9F
:10057800031DB92A7208FF3A8005F41CC42AC52A4B
:10058800DB2A340884008317351C83130130F200FA
:10059800370CF300F30C730C0739013ED52A03100E
:1005A800F20DFF3E031DD32A72088004F12A340895
:1005B80084008317351C83130130F200370CF300D5
:1005C800F30C730C0739013EEB2A0310F20DFF3EC2
:1005D800031DE92A7208FF3A8005741DF42AF52ADA
:1005E800082B340884008317351C83130130F2006C
:1005F80038080739013E022B0310F20DFF3E031D98
:10060800002B720880041B2B340884008317351CC8
:1006180083130130F20038080739013E152B031007
:10062800F20DFF3E031D132B7208FF3A8005F41DDF
:100638001E2B1F2B352B340884008317351C83137E
:100648000130F200380CF300F30C730C0739013E4B
:100658002F2B0310F20DFF3E031D2D2B7208800473
:100668004B2B340884008317351C83130130F200A8
:10067800380CF300F30C730C0739013E452B0310BB
:10068800F20DFF3E031D432B7208FF3A8005080058
:100698003430840083120313200883138000840AF3
:1006A80021088000840A22088000840A2308800028
:1006B800840A2408800000303506031D652B0530A8
:1006C8003406031D682B692B6D2B831603138501D4
:1006D800882B00303506031D732B06303406031DA6
:1006E800762B772B7B2B831603138601882B003000
:1006F8003506031D812B07303406031D842B852BFB
:10070800F82B8316031387013430F900F130F80011
:10071800F80B8C2BF90B8C2B912B03300A128A11B6
:10072800E3240A128A110D30F900FB30F800F80BA7
:100738009B2BF90B9B2BA02B03300A128A11E32465
:100748000A128A112A30F9008D30F800F80BAA2B0A
:10075800F90BAA2BAF2B03300A128A11E3240A12D1
:100768008A1102300A128A11E3240A128A1102300D
:100778000A128A11E3240A128A1108300A128A110D
:10078800E3240A128A1100300A128A11E3240A1299
:100798008A1106300A128A11E3240A128A110830D3
:1007A800FA007A157A08F80004300310F80CFF3EB6
:1007B800031DD92B78080F390A128A11E3240A126B
:1007C8008A117A080F390A128A11E3240A128A1147
:1007D80000300A128A11E3240A128A1101300A121F
:1007E8008A11E3240A128A110800F70083120313FE
:1007F800340884008317351C83130130F50036084C
:100808000739013E092C0310F50DFF3E031D072C87
:10081800750880047708F50004300310F50CFF3ED6
:10082800031D112C75080F390A128A1192220A1217
:100838008A1183120313340884008317351C831329
:100848000130F500360CF600F60C760C0739013E3F
:100858002F2C0310F50DFF3E031D2D2C7508800469
:100868001A30F500F50B362C0000831203133408F8
:1008780084008317351C83130130F500360CF6000D
:10088800F60C760C0739013E4B2C0310F50DFF3E94
:10089800031D492C7508FF3A800577080F390A129D
:1008A8008A1192220A128A118312031334088400CF
:1008B8008317351C83130130F500360CF600F60C4F
:1008C800760C0739013E6A2C0310F50DFF3E031D17
:1008D800682C750880041A30F500F50B712C00009F
:1008E80083120313340884008317351C83130130E3
:1008F800F500360CF600F60C760C0739013E862C0E
:100908000310F50DFF3E031D842C7508FF3A800582
:10091800080083120313A0002008F9000230031016
:10092800F90DFF3E031D932C0310790D403EFA008C
:1009380004300310FA0CFF3E031D9D2C7A080F3972
:100948000A128A11E3240A128A1183120313200857
:10095800F90002300310F90DFF3E031DAE2C031001
:10096800790D403E0F390A128A11E3240A128A11BE
:1009780083120313A1012108780784000A128A113F
:1009880068250A128A110A128A11F9230A128A1191
:10099800013083120313A10708302102031CD52C50
:1009A800D62CBF2C08300A128A11E3240A128A11A5
:1009B80000300A128A11E3240A128A110800F7008B
:1009C80083120313340884008317351C8313013002
:1009D800F50036080739013EF32C0310F50DFF3EEC
:1009E800031DF12C7508FF3A800577080A128A1151
:1009F80092220A128A11831203133408840083177F
:100A0800351C83130130F500360CF600F60C760C15
:100A18000739013E112D0310F50DFF3E031D0F2D63
:100A2800750880040B30F6006230F500F50B1A2DBE
:100A3800F60B1A2D00008312031334088400831761
:100A4800351C83130130F500360CF600F60C760CD5
:100A58000739013E312D0310F50DFF3E031D2F2DE3
:100A68007508FF3A80050800F6000D30F500FB30E8
:100A7800F400F40B3D2DF50B3D2D422D83308312F0
:100A880003139F057608F40001300310F40DFF3EB0
:100A9800031D492D0310740D9F040630F5003030F6
:100AA800F400F40B552DF50B552D0000831203139C
:100AB8009F149F18602D612D5D2D1E08F30083166D
:100AC80003131E08F200080005308A000408840A8F
:100AD80082070034FF34FF34FF34FF34FF34FF341F
:100AE800FF34FF3404341F340E3404341F34043408
:100AF8000E340A340E341F340E3404341F340434D4
:100B080004340A348B1C892D8A2D952D8B108B1358
:100B18007B080319902D922D0130932D0030FB0096
:100B28008B1771088A00700E8300FE0E7E0E090076
:100B380003308316031788008901013083120313D9
:100B48009F008030831603139F0008000734003489
:060B58001A342C343E3477
:04400E00F12FFF3F50
:00000001FF
