:060000000A128A11FC2F18
:100EF8000330831603178800890101308312031316
:100F08009F008030831603139F000800F4000D3003
:100F1800F300FB30F200F20B8F2FF30B8F2F942F7F
:100F28008330831203139F057408F2000130031005
:100F3800F20DFF3E031D9B2F0310720D9F04063018
:100F4800F3003030F200F20BA72FF30BA72F0000AD
:100F5800831203139F149F18B22FB32FAF2F1E08AD
:100F6800F100831603131E08F0000800FF308316F3
:100F78000313860087010C30831203139700073090
:100F88009200FF308316031392000A128A117C27FD
:100F98000A128A1183120313061CD32FD42FD62FBB
:100FA80007148710861CD92FDA2FDC2F0710871417
:100FB80000300A128A118A270A128A117108F80069
:100FC8007008F7007808F6007708F5000310F60CAB
:100FD800F50C0310F60CF50C7508F9007608FA0004
:100FE8007908831203139500CE2F0A128A1100285C
:080FF80083010A128A11BA2FCD
:04400E00F12FFF3F50
:00000001FF
