:100000000A128A11D02FFF1B0D2883137F18831724
:100010000008840A0319FF0A080000308A00040857
:10002000840A8207003456346F346C34743461347B
:100030006A346534203431343A3420340034563450
:100040006F346C34743461346A346534203432343F
:100050003A3420340034253475342E342534753444
:0200600000346A
:1000C8000800073400341A342C343E3464008001AC
:1000D800840A04060319003404066B2803308316C7
:1000E8000317880089010130831203139F008030B1
:1000F800831603139F000800323083120313B700DE
:100108003008B8000030B900BA01BB01C101C20112
:100118003830AC000030AD003108AE003730AF00E9
:100128000A128A11A3200A128A11831203133A08A9
:100138003007B60036088400831380010800831254
:1001480003132E08FD00B728831203132C08A00000
:100158002D08A1007D30A2002F08A3000A128A11E1
:100168007C250A128A117D0884000A128A110D2042
:100178000A128A11003A031DC228C328A82883122C
:100188000313AC01AD010800F4000D30F300FB309F
:10019800F200F20BCD28F30BCD28D228833083123E
:1001A80003139F057408F20001300310F20DFF3E9F
:1001B800031DD9280310720D9F040630F300303058
:1001C800F200F20BE528F30BE52800008312031375
:1001D8009F149F18F028F128ED281E088316031392
:1001E8001E07F200F301F30D7208F0007308F10026
:1001F8000800700871040319022903293029013005
:10020800F4000F2901300310F00DF10DFF3E031D1E
:1002180007290130F407F11F12291329062971084B
:100228007302031D192970087202031C1C291D2959
:1002380023297008F2027108031CF303F30201304A
:100248000310F10CF00CFF3E031D24290130F402C9
:10025800031D2F29302913297308F1007208F000B3
:100268000800FB01FC015A297B087607F90077088A
:10027800F8000318F80AFB1F4229F8037808FA0067
:100288007A0883120313FF00790884000A128A117E
:1002980003200A128A110A128A1154220A128A1198
:1002A8000130FB070318FC0A0030FC077B087607BF
:1002B800F9007708F8000318F80AFB1F6429F80307
:1002C8007808FA007A0883120313FF00790884007B
:1002D8000A128A1103200A128A11003A031D75298D
:1002E800762938290800F401F5017008710403190A
:1002F8007E297F29B4290130F6008B2901300310AB
:10030800F00DF10DFF3E031D83290130F607F11FA3
:100318008E298F29822901300310F40DF50DFF3E37
:10032800031D902971087302031D9C29700872022D
:10033800031C9F29A029A7297008F2027108031C31
:10034800F303F302741401300310F10CF00CFF3EB8
:10035800031DA8290130F602031DB329B4298F29EA
:100368007508F1007408F00008000030FC00003047
:10037800FB000030FA000030F900701CC429C529C0
:10038800DC297408F907750803110318013E0319DD
:10039800CE29FA07760803110318013E0319D52957
:1003A800FB07770803110318013E0319DC29FC0732
:1003B8000130F8000310F40DF50DF60DF70DF80BEC
:1003C800DE2901300310F30CF20CF10CF00CFF3EA7
:1003D800031DE6297308720471047004031DF529CE
:1003E800F629C1297C08F3007B08F2007A08F1009D
:1003F8007908F0000800F50083160313400884000C
:100408008317411C83130130F30042080739013E6A
:100418000F2A0310F30DFF3E031D0D2A7308FF3A40
:10042800800575080A128A11C2240A128A118316D5
:100438000313400884008317411C83130130F30021
:10044800420CF400F40C740C0739013E2D2A0310F9
:10045800F30DFF3E031D2B2A730880040B30F400B4
:100468006230F300F30B362AF40B362A00008316A9
:100478000313400884008317411C83130130F300E1
:10048800420CF400F40C740C0739013E4D2A031099
:10049800F30DFF3E031D4B2A7308FF3A8005080041
:1004A800F50083160313400884008317411C831347
:1004B8000130F30042080739013E642A0310F30DA6
:1004C800FF3E031D622A730880047508F300043098
:1004D8000310F30CFF3E031D6C2A73080F390A1230
:1004E8008A11C2240A128A11831603134008840051
:1004F8008317411C83130130F300420CF400F40C01
:10050800740C0739013E8A2A0310F30DFF3E031DC0
:10051800882A730880041A30F300F30B912A00002C
:1005280083160313400884008317411C831301308A
:10053800F300420CF400F40C740C0739013EA62AAF
:100548000310F30DFF3E031DA42A7308FF3A80052C
:1005580075080F390A128A11C2240A128A118316E1
:100568000313400884008317411C83130130F300F0
:10057800420CF400F40C740C0739013EC52A031030
:10058800F30DFF3E031DC32A730880041A30F300DD
:10059800F30BCC2A0000831603134008840083174A
:1005A800411C83130130F300420CF400F40C740C6A
:1005B8000739013EE12A0310F30DFF3E031DDF2A30
:1005C8007308FF3A8005080083120313A901A31FCB
:1005D800EE2AEF2AFC2AA009A109A209A309A00A68
:1005E8000319A10A0319A20A0319A30A0130A900D1
:1005F800A71FFF2A002B0D2BA409A509A609A709E7
:10060800A40A0319A50A0319A60A0319A70A01309F
:10061800A9060030AD000030AC000030AB0000305F
:10062800AA00230822042104200403191C2B1D2BD3
:10063800682B0130A8002B2B0130FD000310A00D02
:10064800A10DA20DA30DFD0B222B0130A807A31F9E
:100658002E2B2F2B202B0130FD000310AA0DAB0DE4
:10066800AC0DAD0DFD0B312B23082702031D462BC6
:1006780022082602031D462B21082502031D462BAE
:1006880020082402031C492B4A2B592B2008A402BA
:100698002108031C210FA5022208031C220FA60211
:1006A8002308031C230FA7022A1401300310A30CEC
:1006B800A20CA10CA00CFF3E031D5A2B0130A8026E
:1006C800031D672B682B2F2B290803196C2B6D2B07
:1006D800782BAA09AB09AC09AD09AA0A0319AB0A18
:1006E8000319AC0A0319AD0A2D08A3002C08A200AF
:1006F8002B08A1002A08A000080072087304031937
:10070800862B872B8D2B72087304031D8C2B8D2B46
:10071800942B70080A128A1164200A128A111A2C62
:100728007208093EF40073080318013E003EF50004
:10073800740884008317751C83130008F600840A64
:100748000008F700760877040319AB2BAC2BDE2BD7
:100758007208093EF40073080318013E003EF500D4
:10076800740884008317751C83130008F600840A34
:100778000008F7007208023EF80073080318013EEB
:10078800003EF900780884008317791C8313000859
:10079800FA00840A0008FB007B08803AFC0077080E
:1007A800803A7C02031DDA2B76087A020318DD2BC7
:1007B800DE2B1A2C720884008317731C831300081D
:1007C800F400840A0008F5007208023EF600730877
:1007D8000318013E003EF700760884008317771C53
:1007E800831300087407F9007508F8000318F80A5D
:1007F800801FFF2BF8037808FA0079088400831714
:100808007A1C8313700880007208023EF400730893
:100818000318013E003EF500740884008317751C18
:10082800831301308007840A0318800A0800C03047
:100838008400760883138000840A77088000840A7D
:1008480078088000840A79088000840A7A08800081
:100858000030831603134106031D342C053040066F
:10086800031D372C382C3A2C8501512C00304106B9
:10087800031D402C06304006031D432C442C462CF7
:100888008601512C00304106031D4C2C07304006D0
:10089800031D4F2C502CC12C87013430FC00F13043
:1008A800FB00FB0B552CFC0B552C5A2C03300A1261
:1008B8008A11FF210A128A110D30FC00FB30FB005F
:1008C800FB0B642CFC0B642C692C03300A128A1174
:1008D800FF210A128A112A30FC008D30FB00FB0B25
:1008E800732CFC0B732C782C03300A128A11FF210D
:1008F8000A128A1102300A128A11FF210A128A1179
:1009080002300A128A11FF210A128A1108300A12CB
:100918008A11FF210A128A1100300A128A11FF2156
:100928000A128A1106300A128A11FF210A128A1144
:100938000830FD007D157D08FB0004300310FB0C1A
:10094800FF3E031DA22C7B080F390A128A11FF21D2
:100958000A128A117D080F390A128A11FF210A1218
:100968008A1100300A128A11FF210A128A110130F5
:100978000A128A11FF210A128A110800F200721C59
:10098800C62CC72CDC2C831603134008840083175D
:10099800411C83130130F00043080739013ED62C6F
:1009A8000310F00DFF3E031DD42C70088004F12CB9
:1009B80083160313400884008317411C83130130F6
:1009C800F00043080739013EEB2C0310F00DFF3E01
:1009D800031DE92C7008FF3A8005F21CF42CF52C55
:1009E8000B2D400884008317411C83130130F0004D
:1009F800430CF100F10C710C0739013E052D031071
:100A0800F00DFF3E031D032D70088004212D4008C2
:100A180084008317411C83130130F000430CF1005C
:100A2800F10C710C0739013E1B2D0310F00DFF3E30
:100A3800031D192D7008FF3A8005721D242D252DE0
:100A4800382D400884008317411C83130130F000BF
:100A580044080739013E322D0310F00DFF3E031DF7
:100A6800302D700880044B2D400884008317411CEA
:100A780083130130F00044080739013E452D031067
:100A8800F00DFF3E031D432D7008FF3A8005F21D4F
:100A98004E2D4F2D652D400884008317411C83136C
:100AA8000130F000440CF100F10C710C0739013EE3
:100AB8005F2D0310F00DFF3E031D5D2D70088004AF
:100AC8007B2D400884008317411C83130130F000FC
:100AD800440CF100F10C710C0739013E752D03101F
:100AE800F00DFF3E031D732D7008FF3A80050800C6
:100AF8008312031322088400000884000A128A1152
:100B08000D200A128A11253A031D8B2D8C2D2E2EAD
:100B1800220884000130800783160313C501C6012B
:100B2800003083120313EF00FF3083160313C7004E
:100B3800FF30C80083120313220884000008AA00AB
:100B48002A0884000A128A110D200A128A11753A9D
:100B5800031DAF2DB02D272E230884008313000812
:100B6800FF00023080077F0884000008A600840A7E
:100B78000008A700220884002A08013E80001C2ED5
:100B88002030AB000130AB022B08A03E84000A30B5
:100B9800F0000030F1002708F3002608F2000A12DE
:100BA8008A11FD200A128A117008303E83138000D2
:100BB8000A30F0000030F100831203132708F30015
:100BC8002608F2000A128A1177210A128A1171087E
:100BD80083120313A7007008A60026082704031928
:100BE800F62DF72D152E2B08031DFB2DFC2DC62DDC
:100BF800152E2B08A03E840083130008A400A5012D
:100C08002408F0002508F1002008F2002108F3006C
:100C18000A128A1181230A128A11013083120313DE
:100C2800AB0720302B06031D1A2E1B2EFD2D472E39
:100C38002A0884000A128A110D200A128A11753AAC
:100C48000319C42D272E83120313220884000130B0
:100C58008007472E22088400000884000A128A119F
:100C68000D200A128A11A400A5012408F000250805
:100C7800F1002008F2002108F3000A128A118123EA
:100C88000A128A11272E08000A128A1172200A12E3
:100C98008A115A308400831603134908831380008D
:100CA800840A4A088000840A4B088000840A4C0899
:100CB8008000840A4D088000763084008312031374
:100CC8005A088000840A5B088000840A5C08800057
:100CD800840A5D088000840A5E0880000A128A116E
:100CE8001B240A128A1100300A128A11FF210A12E3
:100CF8008A1101300A128A11FF210A128A1108305A
:100D08000A128A11FF210A128A1100300A128A1166
:100D1800FF210A128A110130F6008030F7000A120A
:100D28008A1135210A128A1108300A128A11FF2104
:100D38000A128A110B300A128A11FF210A128A112B
:100D480000300A128A11C8200A128A117108831207
:100D58000313E0007008DF000030A3000030A20099
:100D68000330A100FF30A0005F08F0006008F10028
:100D7800F201F3010030F7000030F600C330F5004F
:100D88005030F4000A128A11B9210A128A11730824
:100D980083120313A7007208A6007108A500700843
:100DA800A4000A128A11E8220A128A118312031374
:100DB8002108EC002008EB001030F0002730F1008B
:100DC8006C08F3006B08F2000A128A1177210A12E4
:100DD8008A11710883120313E2007008E1001030D1
:100DE800F0002730F1006C08F3006B08F2000A12DB
:100DF8008A11FD200A128A11710883120313E40074
:100E08007008E3004630B0001930B1006208B30042
:100E18006108B2006408B5006308B4000A128A11B8
:100E280080200A128A114630F6000030F7000A12B4
:100E38008A1135210A128A110C300A128A11FF21EF
:100E48000A128A1100300A128A11FF210A128A1125
:100E58000D30F6008030F7000A128A1135210A1287
:100E68008A110C300A128A11FF210A128A110B30DA
:100E78000A128A11FF210A128A1101300A128A11F4
:100E8800C8200A128A11710883120313E600700839
:100E9800E5000030A3000030A2000330A100FF30BD
:100EA800A0006508F0006608F100F201F3010030C7
:100EB800F7000030F600C330F5005030F4000A1295
:100EC8008A11B9210A128A11730883120313A70021
:100ED8007208A6007108A5007008A4000A128A11F9
:100EE800E8220A128A11831203132108EE0020084F
:100EF800ED001030F0002730F1006E08F3006D08A7
:100F0800F2000A128A1177210A128A1171088312D3
:100F18000313E8007008E7001030F0002730F100F4
:100F28006E08F3006D08F2000A128A11FD200A12F9
:100F38008A11710883120313EA007008E90050301F
:100F4800B0001930B1006808B3006708B2006A0839
:100F5800B5006908B4000A128A1180200A128A11A1
:100F68005030F6000030F7000A128A1135210A12B3
:100F78008A11023083120313C5000430C400B9304B
:100F8800C300C30BC52FC40BC52FC50BC52FCC2F52
:100F9800772E0A128A110028831603130A128A115F
:100FA80065200A128A11C9000A128A1166200A12DB
:100FB8008A11CA000A128A1167200A128A11CB0004
:100FC8000A128A1168200A128A11CC000A128A11A0
:100FD80069200A128A11CD008313A0308400C93019
:100FE8000A128A116A200A128A1183120313EF0166
:080FF80083010A128A11482E40
:04400E00F12FFF3F50
:00000001FF
