:060000000A128A110C280F
:10000800FE00030EF0000A08F1000A128A15282ED5
:100018000A128A110F280A128A150D260A128A1145
:10002800D9000A128A150E260A128A11DA000A1253
:100038008A150F260A128A11DB000A128A15102661
:100048000A128A11DC000A128A1511260A128A116C
:10005800DD008313CB308400ED300A128A15122696
:100068000A128A115030840059300A128A15122651
:100078000A128A11FB0183010A128A114328831686
:100088000317880189018316031301087F3981004A
:1000980088018701FF3086008B170B1601130A129F
:1000A8008A151A260A128A11B4308400831203139F
:1000B800590883138000840A5A088000840A5B0860
:1000C8008000840A5C088000840A5D088000203073
:1000D80084008316031334088000840A35088000DE
:1000E800840A36088000840A37088000840A3808A1
:1000F80080000A128A1141250A128A1183120313F9
:100108008618872888289D28823083120313CE00FA
:10011800DD30CD00CD0B8E28CE0B8E280130831616
:100128000313EB0702306B06031D9B289C289D28B0
:10013800EB01831603136B08031DA328A428392A8F
:1001480000300A128A15AB270A128A1101300A12E6
:100158008A15AB270A128A1108300A128A15AB27AA
:100168000A128A1100300A128A15AB270A128A115C
:1001780000300A128A15AC260A128A1173088316EF
:100188000313C8007208C700003083120313A700C6
:100198000030A6000330A500FF30A4008316031327
:1001A8004708F2004808F300F401F5010030F900AF
:1001B8000030F800C330F7005030F6000A128A15F4
:1001C8005F270A128A11750883120313AB0074089B
:1001D800AA007308A9007208A8000A128A118E26BC
:1001E8000A128A1183120313250883160313C20007
:1001F80083120313240883160313C10010308312DB
:100208000313A0002730A1008316031342088312AA
:100218000313A30083160313410883120313A200D8
:100228000A128A11BB270A128A11831203132108A2
:1002380083160313BA0083120313200883160313CB
:10024800B9001030F2002730F3004208F5004108E9
:10025800F4000A128A15E1260A128A117308831615
:100268000313BC007208BB006C08031D3C293D2920
:100278008D291D30F8008030F9000A128A151927D7
:100288000A128A1108300A128A15AB270A128A1133
:1002980009300A128A15AB270A128A11A030831274
:1002A8000313BA003630BB00831603133A088312CF
:1002B8000313BD0083160313390883120313BC000C
:1002C800831603133C0883120313BF00831603131A
:1002D8003B0883120313BE000A128A1564260A1209
:1002E8008A11A030F8000030F9000A128A1519277F
:1002F8000A128A11033083120313CF000830CE008C
:100308007630CD00CD0B8629CE0B8629CF0B8629DA
:100318000000831603136C03031D93299429F829FD
:100328000130F8008030F9000A128A1519270A12DC
:100338008A11FF3083120313A0000330A100831633
:1003480003134808F3004708F2006430F400003053
:10035800F5000A128A1587260A128A117308831271
:100368000313A3007208A2000A128A11BB270A12FB
:100378008A1183120313210883160313C6008312FC
:100388000313200883160313C500A0308312031338
:10039800BA003930BB0083160313460883120313CF
:1003A800BD0083160313450883120313BC000A1209
:1003B8008A1564260A128A11A030F8000030F90064
:1003C8000A128A1519270A128A1103308312031395
:1003D800CF000830CE007630CD00CD0BF129CE0B02
:1003E800F129CF0BF12900000230831603136C06A4
:1003F800031DFF29002A82282830F8008030F900E0
:100408000A128A1519270A128A11A03083120313B7
:10041800BA003930BB00831603134808831203134C
:10042800BD0083160313470883120313BC000A1286
:100438008A1564260A128A11A030F8000030F900E3
:100448000A128A1519270A128A1103308312031314
:10045800CF000830CE007630CD00CD0B312ACE0B40
:10046800312ACF0B312A0000822800300A128A155F
:10047800AB270A128A1101300A128A15AB270A1211
:100488008A110C300A128A15AB270A128A11003019
:100498000A128A15AB270A128A1101300A128A1524
:1004A800AC260A128A11730883160313CA0072084D
:1004B800C900003083120313A7000030A6000330E0
:1004C800A500FF30A400831603134908F2004A0868
:1004D800F300F401F5010030F9000030F800C330F2
:1004E800F7005030F6000A128A155F270A128A119F
:1004F800750883120313AB007408AA007308A900D7
:100508007208A8000A128A118E260A128A1183120A
:100518000313250883160313C40083120313240846
:1005280083160313C300103083120313A00027306F
:10053800A10083160313440883120313A300831630
:100548000313430883120313A2000A128A11BB275C
:100558000A128A1183120313210883160313BE009B
:1005680083120313200883160313BD001030F20012
:100578002730F3004408F5004308F4000A128A15EE
:10058800E1260A128A11730883160313C000720841
:10059800BF006C08031DD12AD22A222B1D30F80077
:1005A8008030F9000A128A1519270A128A110C30AC
:1005B8000A128A15AB270A128A1109300A128A15FB
:1005C800AB270A128A11AA3083120313BA003630F5
:1005D800BB00831603133E0883120313BD00831662
:1005E80003133D0883120313BC008316031340084A
:1005F80083120313BF00831603133F0883120313E8
:10060800BE000A128A1564260A128A11AA30F80056
:100618000030F9000A128A1519270A128A110330C4
:1006280083120313CF000830CE007630CD00CD0BF7
:100638001B2BCE0B1B2BCF0B1B2B0000831603137E
:100648006C03031D282B292B8D2B0F30F8008030CD
:10065800F9000A128A1519270A128A11FF30831223
:100668000313A0000330A100831603134A08F30004
:100678004908F2006430F4000030F5000A128A15C7
:1006880087260A128A11730883120313A3007208BB
:10069800A2000A128A11BB270A128A1183120313B5
:1006A800210883160313C600831203132008831638
:1006B8000313C500AA3083120313BA003930BB00F4
:1006C80083160313460883120313BD00831603130E
:1006D800450883120313BC000A128A1564260A12FD
:1006E8008A11AA30F8000030F9000A128A15192771
:1006F8000A128A11033083120313CF000830CE0088
:100708007630CD00CD0B862BCE0B862BCF0B862BD0
:1007180000000230831603136C06031D942B952BDF
:1007280082282F30F8008030F9000A128A1519271C
:100738000A128A11AA3083120313BA003930BB0097
:10074800831603134A0883120313BD008316031389
:10075800490883120313BC000A128A1564260A1278
:100768008A11AA30F8000030F9000A128A151927F0
:100778000A128A11292A0A128A110C2883120313D1
:100788002B0884008313000884000A128A150A20A3
:100798000A128A11253A031DD22BD32B6D2C2B0854
:1007A800840001308007D501D6010030FB00FF30FE
:1007B800D700FF30D8002B0884000008B3003308A6
:1007C80084000A128A150A200A128A11753A031D32
:1007D800EE2BEF2B652C2C0884000008FF0002305C
:1007E80080077F0884000008AF00840A0008B00072
:1007F8002B0884003308013E80005A2C2030B400B6
:100808000130B4023408CB3E84000A30F2000030D4
:10081800F3003008F5002F08F4000A128A15E126C3
:100828000A128A117208303E831380000A3083123C
:100838000313A0000030A1003008A3002F08A20075
:100848000A128A11BB270A128A118312031321087C
:10085800B0002008AF002F0830040319342C352CC1
:10086800532C3408031D392C3A2C042C532C3408EF
:10087800CB3E840083130008AD00AE012D08F200C2
:100888002E08F3002908F4002A08F5000A128A1134
:10089800EE250A128A11013083120313B40720309F
:1008A8003406031D582C592C3B2C862C3308840005
:1008B8000A128A150A200A128A11753A0319022C9B
:1008C800652C831203132B088400013083138007DF
:1008D800862C2B088400000884000A128A150A2036
:1008E8000A128A11AD00AE012D08F2002E08F3009D
:1008F8002908F4002A08F5000A128A11EE250A12BE
:100908008A11652C0800F400741C8B2C8C2CA12CEB
:1009180083120313500884008317511C831301307A
:10092800F20053080739013E9B2C0310F20DFF3EDD
:10093800031D992C72088004B62C831203135008E7
:1009480084008317511C83130130F20053080739C0
:10095800013EB02C0310F20DFF3E031DAE2C7208B1
:10096800FF3A8005F41CB92CBA2CD02C500884000E
:100978008317511C83130130F200530CF300F30C5E
:10098800730C0739013ECA2C0310F20DFF3E031DFC
:10099800C82C72088004E62C500884008317511C68
:1009A80083130130F200530CF300F30C730C073976
:1009B800013EE02C0310F20DFF3E031DDE2C7208F1
:1009C800FF3A8005741DE92CEA2CFD2C50088400A0
:1009D8008317511C83130130F20054080739013E74
:1009E800F72C0310F20DFF3E031DF52C720880044E
:1009F800102D500884008317511C83130130F20016
:100A080054080739013E0A2D0310F20DFF3E031D5D
:100A1800082D7208FF3A8005F41D132D142D2A2D78
:100A2800500884008317511C83130130F200540CC2
:100A3800F300F30C730C0739013E242D0310F20D5B
:100A4800FF3E031D222D72088004402D50088400AB
:100A58008317511C83130130F200540CF300F30C7C
:100A6800730C0739013E3A2D0310F20DFF3E031DAA
:100A7800382D7208FF3A8005080050308400831230
:100A88000313200883138000840A21088000840A45
:100A980022088000840A23088000840A2408800031
:100AA80000305106031D5A2D05305006031D5D2DDB
:100AB8005E2D622D8316031385017D2D00305106AE
:100AC800031D682D06305006031D6B2D6C2D702DEF
:100AD8008316031386017D2D00305106031D762DE4
:100AE80007305006031D792D7A2DED2D831603133B
:100AF80087013430F900F130F800F80B812DF90B3B
:100B0800812D862D03300A128A15AB270A128A1105
:100B18000D30F900FB30F800F80B902DF90B902DF3
:100B2800952D03300A128A15AB270A128A112A302A
:100B3800F9008D30F800F80B9F2DF90B9F2DA42D8F
:100B480003300A128A15AB270A128A1102300A12D8
:100B58008A15AB270A128A1102300A128A15AB27A6
:100B68000A128A1108300A128A15AB270A128A114A
:100B780000300A128A15AB270A128A1106300A12A7
:100B88008A15AB270A128A110830FA007A157A08F2
:100B9800F80004300310F80CFF3E031DCE2D780832
:100BA8000F390A128A15AB270A128A117A080F39E7
:100BB8000A128A15AB270A128A1100300A128A15FE
:100BC800AB270A128A1101300A128A15AB270A12BA
:100BD8008A110800740875040319F32DF42DFA2DF1
:100BE80074087504031DF92DFA2D012E72080A12D6
:100BF8008A11FF270A128A118D2E7408093E831262
:100C08000313A00075080318013E003EA100200848
:100C180084008317211C83130008A200840A00089B
:100C2800A3002208230403191A2E1B2E4D2E740824
:100C3800093EA00075080318013E003EA1002008E7
:100C480084008317211C83130008A200840A00086B
:100C5800A3007408023EA40075080318013E003E74
:100C6800A500240884008317251C83130008A60008
:100C7800840A0008A7002708803AA8002308803AB9
:100C88002802031D492E2208260203184C2E4D2E39
:100C98008D2E740884008317751C83130008831233
:100CA8000313A000840A0008A1007408023EA200F1
:100CB80075080318013E003EA3002208840083172C
:100CC800231C831300082007A5002108A40003188B
:100CD800A40A801F702EA403831203132408A600FD
:100CE800250884008317261C831372088000740863
:100CF800023EA00075080318013E003EA10020082E
:100D080084008317211C831301308007840A031889
:100D1800800A080083120313AE01A71F942E952E94
:100D2800A22EA409A509A609A709A40A0319A50AB8
:100D38000319A60A0319A70A0130AE00AB1FA52E96
:100D4800A62EB32EA809A909AA09AB09A80A03194E
:100D5800A90A0319AA0A0319AB0A0130AE06003022
:100D6800B2000030B1000030B0000030AF002708FA
:100D78002604250424040319C22EC32E0E2F013085
:100D8800AD00D12E0130AC000310A40DA50DA60DA9
:100D9800A70DAC0BC82E0130AD07A71FD42ED52E3A
:100DA800C62E0130AC000310AF0DB00DB10DB20D61
:100DB800AC0BD72E27082B02031DEC2E26082A027F
:100DC800031DEC2E25082902031DEC2E24082802F9
:100DD800031CEF2EF02EFF2E2408A8022508031C62
:100DE800250FA9022608031C260FAA022708031CA0
:100DF800270FAB022F1401300310A70CA60CA50C6B
:100E0800A40CFF3E031D002F0130AD02031D0D2F62
:100E18000E2FD52E2E080319122F132F1E2FAF09B0
:100E2800B009B109B209AF0A0319B00A0319B10A26
:100E38000319B20A3208A7003108A6003008A50035
:100E48002F08A4000800F700831203135008840039
:100E58008317511C83130130F50052080739013EEE
:100E6800372F0310F50DFF3E031D352F750880043D
:100E78007708F50004300310F50CFF3E031D3F2FE3
:100E880075080F390A128A1187240A128A118312E7
:100E98000313500884008317511C83130130F50095
:100EA800520CF600F60C760C0739013E5D2F031044
:100EB800F50DFF3E031D5B2F750880041A30F50001
:100EC800F50B642F00008312031350088400831766
:100ED800511C83130130F500520CF600F60C760C09
:100EE8000739013E792F0310F50DFF3E031D772FBB
:100EF8007508FF3A800577080F390A128A11872486
:100F08000A128A1183120313500884008317511C94
:100F180083130130F500520CF600F60C760C0739F5
:100F2800013E982F0310F50DFF3E031D962F7508FF
:100F380080041A30F500F50B9F2F0000831203136D
:100F4800500884008317511C83130130F500520C9C
:100F5800F600F60C760C0739013EB42F0310F50D98
:100F6800FF3E031DB22F7508FF3A80050800F901FE
:100F7800FA0183120313200821040319C42FC52F73
:100F8800FA2F0130F800D12F01300310A00DA10D68
:100F9800FF3E031DC92F0130F807A11FD42FD52FFD
:100FA800C82F01300310F90DFA0DFF3E031DD62F8F
:100FB80021082302031DE22F20082202031CE52F2B
:100FC800E62FED2F2008A2022108031CA303A30289
:100FD800791401300310A10CA00CFF3E031DEE2F65
:100FE8000130F802031DF92FFA2FD52F7A08A10036
:100FF8007908A00008000800FF1B0A2883137F183F
:1010080083170008840A0319FF0A080008308A00B9
:101018000408840A8207003450346F34723463340D
:1010280065346E34743461346A34653431343A3436
:101038002034003450346F347234633465346E3481
:10104800743461346A34653432343A3420340034C8
:1010580056346F346C34743461346A3465343134E2
:101068003A342034003441344434433431343A344B
:101078002034003441344434433432343A34203454
:0E1088000034253475342E342534753400348C
:101C1A00073400341A342C343E3464008001840AB8
:101C2A000406031900340406132E0330831603171F
:101C3A00880089010130831203139F0080308316C4
:101C4A0003139F0008008B1C2B2E2C2E3A2E8B1070
:101C5A008B13013083160313EC078B1703306C06C2
:101C6A00031D382E392E3A2EEC0171088A00700EA7
:101C7A008300FE0E7E0E0900831203133708B90093
:101C8A00532E3508A9003608AA003930AB003808A7
:101C9A00AC000A128A11C2230A128A15831203138C
:101CAA00390884000A128A150A200A128A15003A8B
:101CBA00031D602E612E462EB501B60108003C3088
:101CCA0083120313C1003A08C2000030C300C401E2
:101CDA00C501CB01CC014230B5000030B6003B084B
:101CEA00B7004130B8000A128A1541260A128A152D
:101CFA008312031344083A07C00040088400831380
:101D0A0080010800F601F701721C8C2E8D2E932E8D
:101D1A007408F6070318F70A7508F7070130031065
:101D2A00F40DF50DFF3E031D942E01300310F30C44
:101D3A00F20CFF3E031D9B2E72087304031DA62E90
:101D4A00A72E892E7708F3007608F2000800F6001D
:101D5A000D30F500FB30F400F40BB12EF50BB12E6B
:101D6A00B62E8330831203139F057608F4000130E0
:101D7A000310F40DFF3E031DBD2E0310740D9F04C6
:101D8A000630F5003030F400F40BC92EF50BC92EDD
:101D9A000000831203139F149F18D42ED52ED12E20
:101DAA001E08831603131E07F400F501F50D7408C7
:101DBA00F2007508F3000800720873040319E62E8E
:101DCA00E72E142F0130F600F32E01300310F20D26
:101DDA00F30DFF3E031DEB2E0130F607F31FF62E1F
:101DEA00F72EEA2E73087502031DFD2E720874027F
:101DFA00031C002F012F072F7208F4027308031C1B
:101E0A00F503F50201300310F30CF20CFF3E031D3B
:101E1A00082F0130F602031D132F142FF72E750811
:101E2A00F3007408F200080083120313A301A4014B
:101E3A00422F23087807A1007908A0000318A00AF6
:101E4A00A31F282FA003831203132008A20022082D
:101E5A00FF00210884000A128A1500200A128A1536
:101E6A000A128A1127270A128A15013083120313CC
:101E7A00A3070318A40A0030A40723087807A100BF
:101E8A007908A0000318A00AA31F4C2FA0038312ED
:101E9A0003132008A2002208FF00210884000A1266
:101EAA008A1500200A128A15003A031D5D2F5E2F3B
:101EBA001E2F0800003083120313A3000030A20073
:101ECA000030A1000030A000721C6C2F6D2F862FED
:101EDA00760883120313A007770803110318013E3B
:101EEA000319782FA107780803110318013E031973
:101EFA007F2FA207790803110318013E0319862FC1
:101F0A00A3070130FA000310F60DF70DF80DF90DCD
:101F1A00FA0B882F01300310F50CF40CF30CF20CB9
:101F2A00FF3E031D902F7508740473047204031D89
:101F3A009F2FA02F692F831203132308F50022086D
:101F4A00F4002108F3002008F2000800F7008312C9
:101F5A000313500884008317511C83130130F500C2
:101F6A0052080739013EBB2F0310F50DFF3E031D32
:101F7A00B92F7508FF3A800577080A128A11872453
:101F8A000A128A1583120313500884008317511CFE
:101F9A0083130130F500520CF600F60C760C073963
:101FAA00013ED92F0310F50DFF3E031DD72F7508EB
:101FBA0080040B30F6006230F500F50BE22FF60BC9
:101FCA00E22F000083120313500884008317511C68
:101FDA0083130130F500520CF600F60C760C073923
:101FEA00013EF92F0310F50DFF3E031DF72F75086B
:061FFA00FF3A800508001B
:04400E00F12FFF3F50
:00000001FF
