:060000000A128A110C280F
:10000800FE00030EF4000A08F5000A128A15A22A57
:100018000A128A110F288313D430FD000930FE001C
:100028002A30FF00C63084000A128A11F0270A120B
:100038008A116030FD000930FE001E30FF005C3080
:1000480084000A128A11F0270A128A118317903045
:100058008400B0300A128A1522210A128A118313E9
:10006800523084005C300A128A1522210A128A1141
:10007800F70183010A128A114128831603138701A5
:100088008312031387018316031388018312031352
:100098008801B0308400831603134F08831380004F
:1000A800840A50088000840A51088000840A520893
:1000B8008000840A530880002530840030088000BE
:1000C800840A31088000840A32088000840A3308D0
:1000D8008000840A340880000A128A15AA250A12A8
:1000E8008A1100300A128A15F7220A128A11013081
:1000F8000A128A15F7220A128A110A128A15382159
:100108000A128A110A128A1547210A128A1108301E
:100118000A128A15F7220A128A1101300A128A1560
:10012800F7220A128A119E3083120313A500803029
:10013800A6000A128A15C4210A128A1110308312E5
:100148000313D1003930D0000D30CF00CF0BAA28CF
:10015800D00BAA28D10BAA2800300A128A15F72238
:100168000A128A1101300A128A15F7220A128A1114
:1001780008300A128A15F7220A128A1101300A1267
:100188008A15F7220A128A11423083120313A50036
:100198008030A6000A128A15C4210A128A1110306A
:1001A80083120313D1003930D0000D30CF00CF0BAC
:1001B800DB28D00BDB28D10BDB2800300A128A158C
:1001C800F7220A128A1101300A128A15F7220A1236
:1001D8008A1108300A128A15F7220A128A11013088
:1001E8000A128A15F7220A128A1151308312031350
:1001F800A5008030A6000A128A15C4210A128A11A5
:100208000C300A128A15F7220A128A1101300A12D2
:100218008A15F7220A128A110A128A1558210A1217
:100228008A1183160313C000400803191C291D29CD
:10023800102931304002031C22292329622D3A302B
:100248004002031828292929622D4008D03EBC0005
:10025800FF3003180030BD003C08FF3EB5003D08E4
:100268000318013EFF3EB600BE01BF013C183D2900
:100278003E2943291430BE000030BF0047291930F9
:10028800BE000030BF00C201C301BB01C101003084
:100298000A128A15F7220A128A1101300A128A15DF
:1002A800F7220A128A110D3083120313D000FB3093
:1002B800CF00CF0B5D29D00B5D2908300A128A15B3
:1002C800F7220A128A1100300A128A15F7220A1236
:1002D8008A11A03083120313BE007730BF00831643
:1002E80003133F0883120313C100831603133E0848
:1002F80083120313C0000A128A157C210A128A117C
:10030800A03083120313A5000030A6000A128A1534
:10031800C4210A128A11103083120313D100393014
:10032800D0000D30CF00CF0B9729D00B9729D10BD8
:10033800972900300A128A15F7220A128A11013009
:100348000A128A15F7220A128A1108300A128A1527
:10035800F7220A128A1101300A128A15F7220A12A4
:100368008A11013083120313A5008030A6000A12F7
:100378008A15C4210A128A110A128A1558210A12EA
:100388008A1183160313C10041080319CC29CD290A
:10039800C02930304102031CD229D329532A3A30CC
:1003A80041020318D829D929532A4108D03EB70059
:1003B800FF3003180030B800430883120313A1006C
:1003C80083160313420883120313A0000A30A20005
:1003D8000030A3000A128A11C5270A128A1183164F
:1003E8000313370883120313200783160313C2006D
:1003F80038080318380A83120313210783160313D6
:10040800C3004308803AFF0080307F02031D0E2A94
:1004180064304202031C112A122A182A63308316F8
:100428000313C2000030C30000300A128A15F722F5
:100438000A128A1101300A128A15F7220A128A1141
:1004480008300A128A15F7220A128A1101300A1294
:100458008A15F7220A128A11A03083120313BE00EC
:100468008230BF0083160313430883120313C100AD
:1004780083160313420883120313C0000A128A1555
:100488007C210A128A11A03083120313A5000030C0
:10049800A6000A128A15C4210A128A11C0292A3014
:1004A8004106031D582A592AC0294308803A831255
:1004B8000313CF00831603133F08803A83120313F4
:1004C8004F02031D6B2A831603133E084202031CC6
:1004D8006E2A6F2A742A013083160313BB00E32A9D
:1004E80000300A128A15F7220A128A1101300A12FC
:1004F8008A15F7220A128A110D3083120313D000CD
:10050800FB30CF00CF0B862AD00B862A08300A1280
:100518008A15F7220A128A1100300A128A15F72260
:100528000A128A11233083120313A5008030A60013
:100538000A128A15C4210A128A1110308312031371
:10054800D1003930D0000D30CF00CF0BA92AD00B05
:10055800A92AD10BA92A83160313C201C3010030AB
:100568000A128A15F7220A128A1101300A128A150C
:10057800F7220A128A1108300A128A15F7220A127B
:100588008A1101300A128A15F7220A128A11A0303C
:1005980083120313BE008230BF008316031343087F
:1005A80083120313C1008316031342088312031333
:1005B800C0000A128A157C210A128A11472A3B03B5
:1005C800031DE72AE82A932C3E084202B9003F0897
:1005D800031C3F0A4302BA0000300A128A15F722A8
:1005E8000A128A1101300A128A15F7220A128A1190
:1005F8000D3083120313D000FB30CF00CF0B022B3A
:10060800D00B022B08300A128A15F7220A128A1117
:1006180000300A128A15F7220A128A115E308312F4
:100628000313A5008030A6000A128A15C4210A12F5
:100638008A110C300A128A15F7220A128A11003020
:100648000A128A15F7220A128A11A030831203139C
:10065800BE006B30BF00831603133A0883120313DE
:10066800C10083160313390883120313C0000A124A
:100678008A157C210A128A11A03083120313A5005F
:100688000030A6000A128A15C4210A128A111030F5
:1006980083120313D1003930D0000D30CF00CF0BB7
:1006A800532BD00B532BD10B532B00300A128A1526
:1006B800F7220A128A1101300A128A15F7220A1241
:1006C8008A110D3083120313D000FB30CF00CF0BFB
:1006D8006B2BD00B6B2B08300A128A15F7220A12E3
:1006E8008A1100300A128A15F7220A128A11333049
:1006F80083120313A5008030A6000A128A15C421AC
:100708000A128A110C300A128A15F7220A128A1163
:1007180000300A128A15F7220A128A118316031367
:100728003508C63E84008313000883120313A5000E
:100738000030031D8030A6000A128A15C4210A124F
:100748008A11831603133C1CAA2BAB2B1F2CC40144
:10075800C5014508803AFF0080307F02031DB62B93
:10076800B5304402031CB92BBA2BBB2BE12B8316E3
:100778000313450883120313BB00831603134408AD
:1007880083120313BA0001300A128A1552220A1280
:100798008A11413083120313D000ED30CF00CF0B04
:1007A800D32BD00BD32BD82B0A3083160313C407B3
:1007B8000318C50A0030C507AD2B0930831203138F
:1007C800D1001E30D000E330CF00CF0BE92BD00B87
:1007D800E92BD10BE92BF02BB43083160313C4009B
:1007E8000030C500C51FF92BFA2BFB2B932C4508AD
:1007F80083120313BB0083160313440883120313E5
:10080800BA0001300A128A1552220A128A1141309E
:1008180083120313D000ED30CF00CF0B112CD00B77
:10082800112C162CF63083160313C4070318C50AB7
:10083800FF30C507F62BC401C5014508803AFF0003
:1008480080307F02031D2A2CB5304402031C2D2C56
:100858002E2C2F2C552C83160313450883120313B3
:10086800BB0083160313440883120313BA00023033
:100878000A128A1552220A128A114130831203136E
:10088800D000ED30CF00CF0B472CD00B472C4C2C91
:100898000A3083160313C4070318C50A0030C507B6
:1008A800212C093083120313D1001E30D000E3300D
:1008B800CF00CF0B5D2CD00B5D2CD10B5D2C642CA5
:1008C800B43083160313C4000030C500C51F6D2C57
:1008D8006E2C6F2C932C450883120313BB008316D0
:1008E8000313440883120313BA0002300A128A154C
:1008F80052220A128A11413083120313D000ED30BC
:10090800CF00CF0B852CD00B852C8A2CF630831684
:100918000313C4070318C50AFF30C5076A2C003043
:100928000A128A15F7220A128A1101300A128A1548
:10093800F7220A128A1108300A128A15F7220A12B7
:100948008A1101300A128A15F7220A128A11BE305A
:1009580083120313A5008030A6000A128A15C42149
:100968000A128A11103083120313D1003930D000D3
:100978000D30CF00CF0BBE2CD00BBE2CD10BBE2C14
:1009880000300A128A15F7220A128A1101300A1257
:100998008A15F7220A128A1108300A128A15F722D4
:1009A8000A128A1101300A128A15F7220A128A11CC
:1009B8009E3083120313A5008030A6000A128A1500
:1009C800C4210A128A11103083120313D10039305E
:1009D800D0000D30CF00CF0BEF2CD00BEF2CD10B6C
:1009E800EF2C00300A128A15F7220A128A110130F8
:1009F8000A128A15F7220A128A1100300A128A1579
:100A0800F7220A128A1101300A128A15F7220A12ED
:100A18008A1108300A128A15F7220A128A1101303F
:100A28000A128A15F7220A128A1142308312031316
:100A3800A5008030A6000A128A15C4210A128A115C
:100A4800103083120313D1003930D0000D30CF009D
:100A5800CF0B2C2DD00B2C2DD10B2C2D00300A12A6
:100A68008A15F7220A128A1101300A128A15F7220A
:100A78000A128A1108300A128A15F7220A128A11F4
:100A880001300A128A15F7220A128A11513083128C
:100A98000313A5008030A6000A128A15C4210A1281
:100AA8008A110C300A128A15F7220A128A110130AB
:100AB8000A128A15F7220A128A11102900300A121E
:100AC8008A15F7220A128A1101300A128A15F722AA
:100AD8000A128A110D3083120313D000FB30CF00A5
:100AE800CF0B742DD00B742D08300A128A15F722FB
:100AF8000A128A1100300A128A15F7220A128A117C
:100B0800123083120313A5008030A6000A128A153A
:100B1800C4210A128A110B3083120313D100263024
:100B2800D0005D30CF00CF0B972DD00B972DD10B78
:100B3800972D00300A128A15F7220A128A110130FD
:100B48000A128A15F7220A128A1100300A128A1527
:100B5800F7220A128A1101300A128A15F7220A129C
:100B68008A1108300A128A15F7220A128A110130EE
:100B78000A128A15F7220A128A11423083120313C5
:100B8800A5008030A6000A128A15C4210A128A110B
:100B9800103083120313D1003930D0000D30CF004C
:100BA800CF0BD42DD00BD42DD10BD42D00300A125D
:100BB8008A15F7220A128A1101300A128A15F722B9
:100BC8000A128A1108300A128A15F7220A128A11A3
:100BD80001300A128A15F7220A128A11513083123B
:100BE8000313A5008030A6000A128A15C4210A1230
:100BF8008A1110290A128A110C288312031306106D
:100C0800861406158615061A0A2E0B2E222E023079
:100C180083120313A2000430A100B930A000A00B76
:100C2800132EA10B132EA20B132E1A2E83120313AD
:100C3800061E1F2E202E1A2E3130C42F861A252E5E
:100C4800262E3D2E023083120313A2000430A10089
:100C5800B930A000A00B2E2EA10B2E2EA20B2E2EEB
:100C6800352E83120313861E3A2E3B2E352E323034
:100C7800C42F061B402E412E582E02308312031318
:100C8800A2000430A100B930A000A00B492EA10B8E
:100C9800492EA20B492E502E83120313061F552EE0
:100CA800562E502E3330C42F861B5B2E5C2E732E8F
:100CB800023083120313A2000430A100B930A0004F
:100CC800A00B642EA10B642EA20B642E6B2E831234
:100CD8000313861F702E712E6B2E4130C42F0614FD
:100CE800861006158615061A7A2E7B2E922E02304D
:100CF80083120313A2000430A100B930A000A00B96
:100D0800832EA10B832EA20B832E8A2E831203130C
:100D1800061E8F2E902E8A2E3430C42F861A952EBA
:100D2800962EAD2E023083120313A2000430A100C8
:100D3800B930A000A00B9E2EA10B9E2EA20B9E2EBA
:100D4800A52E83120313861EAA2EAB2EA52E353090
:100D5800C42F061BB02EB12EC82E023083120313E7
:100D6800A2000430A100B930A000A00BB92EA10B3D
:100D7800B92EA20BB92EC02E83120313061FC52E3F
:100D8800C62EC02E3630C42F861BCB2ECC2EE32E7B
:100D9800023083120313A2000430A100B930A0006E
:100DA800A00BD42EA10BD42EA20BD42EDB2E831293
:100DB8000313861FE02EE12EDB2E4230C42F0614CB
:100DC800861406118615061AEA2EEB2E022F02301B
:100DD80083120313A2000430A100B930A000A00BB5
:100DE800F32EA10BF32EA20BF32EFA2E831203136C
:100DF800061EFF2E002FFA2E3730C42F861A052F15
:100E0800062F1D2F023083120313A2000430A10005
:100E1800B930A000A00B0E2FA10B0E2FA20B0E2F86
:100E2800152F83120313861E1A2F1B2F152F3830E8
:100E3800C42F061B202F212F382F023083120313B3
:100E4800A2000430A100B930A000A00B292FA10BEB
:100E5800292FA20B292F302F83120313061F352F9A
:100E6800362F302F3930C42F861B3B2F3C2F532F62
:100E7800023083120313A2000430A100B930A0008D
:100E8800A00B442FA10B442FA20B442F4B2F8312EE
:100E98000313861F502F512F4B2F4330C42F061496
:100EA800861406158611061A5A2F5B2F722F0230E8
:100EB80083120313A2000430A100B930A000A00BD4
:100EC800632FA10B632FA20B632F6A2F83120313C7
:100ED800061E6F2F702F6A2F2A30C42F861A752F7F
:100EE800762F8D2F023083120313A2000430A10045
:100EF800B930A000A00B7E2FA10B7E2FA20B7E2F56
:100F0800852F83120313861E8A2F8B2F852F30304F
:100F1800C42F061B902F912FA82F02308312031382
:100F2800A2000430A100B930A000A00B992FA10B9A
:100F3800992FA20B992FA02F83120313061FA52FF9
:100F4800A62FA02F2330C42F861BAB2FAC2FC32F67
:100F5800023083120313A2000430A100B930A000AC
:100F6800A00BB42FA10BB42FA20BB42FBB2F83124D
:100F78000313861FC02FC12FBB2F4430C42F6E30E0
:100F8800080083120313A401A501201CCC2FCD2F28
:100F9800D32F2208A4070318A50A2308A5070130A0
:100FA8000310A20DA30DFF3E031DD42F0130031023
:100FB800A10CA00CFF3E031DDB2F20082104031DFC
:100FC800E62FE72FC92F2508A1002408A000080054
:100FD8007E088A007F0882000A128A11EC270A120A
:100FE8008A118000840A04087D0603190034FF0A68
:100FF8000319FE0AF02F0800FF1B0A2883137F1825
:1010080083170008840A0319FF0A080008308A00B9
:101018000408840A820700345034613479343A343D
:101028002834503472346534733473342034303493
:1010380029342034203420340034533465346C345B
:101048006534633474342034563461346C34693410
:10105800643420344E3475346D34003449346E347D
:1010680063346F346D3470346C346534743465347F
:101078002C34203470346134793400344434693485
:101088007334703465346E34733469346E34673451
:101098002E342E342E343A340034533465346C34C0
:1010A8006534633474342034703472346F34643487
:1010B80075346334743400344F34703474346934A0
:1010C8006F346E3473343A34203431342D34393437
:1010D80000345034613479342034613463346334F7
:1010E800653470347434653464340034433468349B
:1010F80061346E34673465343A342034243425340A
:1011080064340034503472346934633465343A34A6
:101118002034243425346434003450346134693440
:1011280064343A342034243425346434003470343C
:1011380061346C3465347434693474346134003423
:1011480072346534663472346534733463346F349E
:101158000034573465346C3463346F346D3465341B
:1011680000346D3461347A346134703461346E34EF
:101178000034673461346E347334693474346F34D2
:1011880000346A34753467347534693474346F34B0
:1011980000344734723461346334693461347334ED
:1011A80000347034613470346934743461347334A5
:1011B800003463346834693463346C3465347334AC
:1011C80000346134673475346934743461340034FC
:0C11D800683461346C346C3473340034BF
:10123C00963400349634003464008001840A040629
:10124C000319003404062329C634AE34DD34953436
:10125C00D634B634CE34A6348C34073400341A3435
:10126C002C343E34831203138601F030831603139F
:10127C0086008316031789017F30831603138105BB
:10128C0008003130831203139000EC308F0078305B
:10129C008E00831603130C14831203130C100B17FC
:1012AC008B1708006E30F60061290A128A1101268C
:1012BC000A128A15F6006E3076060319662967291C
:1012CC005B297608080083120313A71B6E296F296C
:1012DC0070297B292609A8002709A900A80A031947
:1012EC00A90A2808A6002908A70008004030831284
:1012FC000313C3003E08C4000030C500C601C7017B
:10130C00CD01CE014430BA000030BB003F08BC0018
:10131C004330BD000A128A159F210A128A158312C6
:10132C00031346083E07C200420884008313800161
:10133C000800831203133C08F600B329831203132D
:10134C003A08AD003B08AE007630AF003D08B00067
:10135C000A128A1518270A128A15760884000A12AE
:10136C008A150A200A128A15003A031DBE29BF29C4
:10137C00A42983120313BA01BB01080083120313BF
:10138C00AA01AB01ED292A082507A8002608A70009
:10139C000318A70AAA1FD329A7038312031327082C
:1013AC00A9002908FF00280884000A128A150020C9
:1013BC000A128A150A128A1572240A128A15013029
:1013CC0083120313AA070318AB0A0030AB072A08D1
:1013DC002507A8002608A7000318A70AAA1FF729A3
:1013EC00A703831203132708A9002908FF00280864
:1013FC0084000A128A1500200A128A15003A031D6D
:10140C00082A092AC9290800003083120313AB00EB
:10141C000030AA000030A9000030A800201C172AB8
:10142C00182A2F2A2408A807250803110318013E9F
:10143C000319212AA907260803110318013E0319D1
:10144C00282AAA07270803110318013E03192F2A7B
:10145C00AB070130F6000310A40DA50DA60DA70DCA
:10146C00F60B312A01300310A30CA20CA10CA00C1A
:10147C00FF3E031D392A2308220421042004031DE6
:10148C00482A492A142A2B08A3002A08A200290852
:10149C00A1002808A000080083120313BC00003030
:1014AC00AF000030AE000030AD00B430AC003A08F4
:1014BC00A0003B08A1000030A11BFF30A200A3003C
:1014CC000030A7000030A6000130A500C230A400F7
:1014DC000A128A150A220A128A1583120313230888
:1014EC00B3002208B2002108B1002008B0000A1293
:1014FC008A150C240A128A15831203132C08963EA3
:10150C00BD002D080318013E003EBE008B133C03AA
:10151C00031D912A922A962A3E08DF003D08DE0020
:10152C0002303C06031D9B2A9C2AA02A3E08DD00A3
:10153C003D08DC008B170800831203130C1CA72A30
:10154C00A82AF02A0C107708031DAD2AAE2AC12A4E
:10155C0008148810F001F1015E087002F2005F08B7
:10156C00031C5F0A7102F30072088E0073088F006F
:10157C000130F700F02A7703031DC52AC62AD92AA1
:10158C0008108814F001F1015C087002F2005D088B
:10159C00031C5D0A7102F30072088E0073088F0041
:1015AC000230F700F02A081088105C085E07F00083
:1015BC005D0803185D0A5F07F1007008783EF200C1
:1015CC0071080318013EEC3EF30072088E0073089C
:1015DC008F00F70175088A00740E8300FE0E7E0ED4
:1015EC00090083120313A400520884008317531CB0
:1015FC0083130130A20054080739013E072B031056
:10160C00A20DFF3E031D052B2208FF3A800524087E
:10161C000A128A155E260A128A15831203135208BF
:10162C0084008317531C83130130A200540CA300B5
:10163C00A30C230C0739013E252B0310A20DFF3EF2
:10164C00031D232B220880040B3083120313A300E9
:10165C006130A200A20B302BA30B302B352B831245
:10166C000313520884008317531C83130130A20008
:10167C00540CA300A30C230C0739013E472B031079
:10168C00A20DFF3E031D452B2208FF3A80050800E2
:10169C0083120313A501A31F542B552B5C2BA209FA
:1016AC00A309A20A0319A30A0130A500A11F5F2BED
:1016BC00602B652BA009A109A00A0319A10A200817
:1016CC00210403196A2B6B2B982B0130A400772B68
:1016DC0001300310A00DA10DFF3E031D6F2B013037
:1016EC00A407A11F7A2B7B2B6E2B21082302031D31
:1016FC00812B20082202031C842B852B8B2B20088A
:10170C00A2022108031CA303A30201300310A10CA5
:10171C00A00CFF3E031D8C2B0130A402031D972B44
:10172C00982B7B2B250803199C2B9D2BA22BA209F4
:10173C00A309A20A0319A30A2308A1002208A000E6
:10174C00080083120313A501A11FAD2BAE2BB52BE3
:10175C00A009A109A00A0319A10A0130A500A31F21
:10176C00B82BB92BC02BA209A309A20A0319A30AEF
:10177C000130A506A601A701200821040319C72BD7
:10178C00C82BFD2B0130A400D42B01300310A00D6D
:10179C00A10DFF3E031DCC2B0130A407A11FD72B9D
:1017AC00D82BCB2B01300310A60DA70DFF3E031D2C
:1017BC00D92B21082302031DE52B20082202031C30
:1017CC00E82BE92BF02B2008A2022108031CA30311
:1017DC00A302261401300310A10CA00CFF3E031D24
:1017EC00F12B0130A402031DFC2BFD2BD82B25085B
:1017FC000319012C022C072CA609A709A60A031908
:10180C00A70A2708A1002608A000080000308312B0
:10181C000313B8000030B7000030B6000030B5003C
:10182C002F082E042D042C0403191D2C1E2C692C9E
:10183C000130B9002C2C0130B4000310AC0DAD0DEF
:10184C00AE0DAF0DB40B232C0130B907AF1F2F2CED
:10185C00302C212C0130B4000310B50DB60DB70D92
:10186C00B80DB40B322C2F083302031D472C2E0855
:10187C003202031D472C2D083102031D472C2C0866
:10188C003002031C4A2C4B2C5A2C2C08B0022D086D
:10189C00031C2D0FB1022E08031C2E0FB2022F08B1
:1018AC00031C2F0FB302351401300310AF0CAE0C18
:1018BC00AD0CAC0CFF3E031D5B2C0130B902031DBB
:1018CC00682C692C302C3808AF003708AE0036086D
:1018DC00AD003508AC00080083120313A4005208B5
:1018EC0084008317531C83130130A200540807395A
:1018FC00013E822C0310A20DFF3E031D802C2208FA
:10190C0080042408A20004300310A20CFF3E031D27
:10191C008A2C22080F390A128A155E260A128A1599
:10192C0083120313520884008317531C8313013052
:10193C00A200540CA300A30C230C0739013EA82CC5
:10194C000310A20DFF3E031DA62C220880041930A3
:10195C0083120313A200A20BB12CB42C8312031319
:10196C00520884008317531C83130130A200540CBB
:10197C00A300A30C230C0739013EC62C0310A20DA7
:10198C00FF3E031DC42C2208FF3A800524080F39A2
:10199C000A128A155E260A128A158312031352083C
:1019AC0084008317531C83130130A200540CA30032
:1019BC00A30C230C0739013EE52C0310A20DFF3EAE
:1019CC00031DE32C22088004193083120313A20098
:1019DC00A20BEE2CF12C83120313520884008317F4
:1019EC00531C83130130A200540CA300A30C230C32
:1019FC000739013E032D0310A20DFF3E031D012DDF
:101A0C002208FF3A800508008312031322082304DE
:101A1C000319112D122D182D22082304031D172D27
:101A2C00182D1F2D20080A128A11FF270A128A1559
:101A3C00A92D2208093EA40023080318013E003EEC
:101A4C00A500240884008317251C83130008A60016
:101A5C00840A0008A700260827040319362D372D01
:101A6C00692D2208093EA40023080318013E003EFC
:101A7C00A500240884008317251C83130008A600E6
:101A8C00840A0008A7002208023EA80023080318B5
:101A9C00013E003EA900280884008317291C8313EB
:101AAC000008AA00840A0008AB002B08803AAC009E
:101ABC002708803A2C02031D652D26082A020318DC
:101ACC00682D692DA92D8312031322088400831716
:101ADC00231C83130008A400840A0008A500220814
:101AEC00023EA60023080318013E003EA70026086C
:101AFC0084008317271C831300082407A9002508DA
:101B0C00A8000318A80A801F8C2DA80383120313A6
:101B1C002808AA002908840083172A1C831320088C
:101B2C0080002208023EA40023080318013E003E58
:101B3C00A500240884008317251C8313013080071B
:101B4C00840A0318800A080052308400831203139D
:101B5C00250883138000840A26088000840A27083D
:101B6C008000840A28088000840A2908800000303C
:101B7C005306031DC32D05305206031DC62DC72D5C
:101B8C00CB2D831603138501E62D00305306031D60
:101B9C00D12D06305206031DD42DD52DD92D8316EB
:101BAC0003138601E62D00305306031DDF2D07308D
:101BBC005206031DE22DE32D5D2E831603138701C0
:101BCC00343083120313AB00F130AA00AA0BEC2DB6
:101BDC00AB0BEC2D03300A128A15F7220A128A1568
:101BEC000D3083120313AB00FB30AA00AA0BFC2DA3
:101BFC00AB0BFC2D03300A128A15F7220A128A1538
:101C0C002A3083120313AB008D30AA00AA0B0C2EC2
:101C1C00AB0B0C2E03300A128A15F7220A128A1506
:101C2C0002300A128A15F7220A128A1502300A1299
:101C3C008A15F7220A128A1508300A128A15F72219
:101C4C000A128A1500300A128A15F7220A128A150E
:101C5C0006300A128A15F7220A128A1508308312E6
:101C6C000313AC002C152C08AA0004300310AA0C8A
:101C7C00FF3E031D3C2E2A080F390A128A15F72243
:101C8C000A128A15831203132C080F390A128A15AB
:101C9C00F7220A128A1500300A128A15F7220A1244
:101CAC008A1501300A128A15F7220A128A150800C1
:101CBC00F600761C622E632E782E831203135208C4
:101CCC0084008317531C83130130A0005508073977
:101CDC00013E722E0310A00DFF3E031D702E200836
:101CEC0080048D2E83120313520884008317531C17
:101CFC0083130130A00055080739013E872E0310CD
:101D0C00A00DFF3E031D852E2008FF3A8005F61C12
:101D1C00902E912EA72E520884008317531C8313E8
:101D2C000130A000550CA100A10C210C0739013E7B
:101D3C00A12E0310A00DFF3E031D9F2E2008800432
:101D4C00BD2E520884008317531C83130130A0004E
:101D5C00550CA100A10C210C0739013EB72E031024
:101D6C00A00DFF3E031DB52E2008FF3A8005761D01
:101D7C00C02EC12ED42E520884008317531C8313FB
:101D8C000130A00056080739013ECE2E0310A00DDD
:101D9C00FF3E031DCC2E20088004E72E5208840041
:101DAC008317531C83130130A00056080739013EDA
:101DBC00E12E0310A00DFF3E031DDF2E2008FF3A7D
:101DCC008005F61DEA2EEB2E012F52088400831796
:101DDC00531C83130130A000560CA100A10C210C44
:101DEC000739013EFB2E0310A00DFF3E031DF92EFB
:101DFC0020088004172F520884008317531C831368
:101E0C000130A000560CA100A10C210C0739013E99
:101E1C00112F0310A00DFF3E031D0F2F2008FF3ABA
:101E2C0080050800831203132F0884000008840027
:101E3C000A128A150A200A128A15253A031D272F21
:101E4C00282FE62F2F08840001308007D701D801F6
:101E5C000030DB00FF30D900FF30DA002F0884009F
:101E6C000008B400340884000A128A150A200A12E9
:101E7C008A15643A0319432F442F502F34088400D9
:101E8C000A128A150A200A128A15693A031D4F2F65
:101E9C00502FDF2F3008840083130008FF0002301E
:101EAC0080077F0884000008B500840A0008B6008B
:101EBC002F0884003408013E80002030B900B61B86
:101ECC00682F6A2F01306B2F0030B3000130B9023C
:101EDC003908903E84000A30A0000030A10036087A
:101EEC00A3003508A2000A128A154E230A128A157D
:101EFC00831203132108A7002008A6000A128A15D2
:101F0C0069210A128A15831203132608303E83179F
:101F1C0080000A30A0000030A1003608A30035086C
:101F2C00A2000A128A15A7230A128A158312031318
:101F3C002108B6002008B500350836040319A72F70
:101F4C00A82FAD2F3908031DAC2FAD2F6C2F3908DE
:101F5C000319B12FB22FD82F33080319B62FB72F6F
:101F6C00D82F0130B9023908903E84002D308317E8
:101F7C008000D82F3908903E840083170008B100E8
:101F8C00B2013108A0003208A1002D08A2002E08D1
:101F9C00A3000A128A150A250A128A150130831227
:101FAC000313B90720303906031DDD2FDE2FC02F98
:101FBC00FF2F831203132F08840001308007FF2F9B
:101FCC002F088400000884000A128A150A200A12BD
:101FDC008A15B100B2013108A0003208A1002D0809
:101FEC00A2002E08A3000A128A150A250A128A15C5
:041FFC00DF2F0800CB
:04400E00F12FFF3F50
:00000001FF
