:060000000A128A11FC2F18
:100E9000831603138801831203138801FC30831225
:100EA000031388000630F2001330F100AD30F0007B
:100EB000F00B582FF10B582FF20B582F5F2F60308B
:100EC0008312031388000630F2001330F100AD30B6
:100ED000F000F00B692FF10B692FF20B692F702FC7
:100EE000DA308312031388000630F2001330F10069
:100EF000AD30F000F00B7A2FF10B7A2FF20B7A2F36
:100F0000812FF2308312031388000630F200133071
:100F1000F100AD30F000F00B8B2FF10B8B2FF20BAB
:100F20008B2F922F66308312031388000630F20055
:100F30001330F100AD30F000F00B9C2FF10B9C2F23
:100F4000F20B9C2FA32FB6308312031388000630B8
:100F5000F2001330F100AD30F000F00BAD2FF10BCB
:100F6000AD2FF20BAD2FB42FBE30831203138800C8
:100F70000630F2001330F100AD30F000F00BBE2F60
:100F8000F10BBE2FF20BBE2FC52FE03083120313DF
:100F900088000630F2001330F100AD30F000F00BA5
:100FA000CF2FF10BCF2FF20BCF2FD62FFE30831286
:100FB000031388000630F2001330F100AD30F0006A
:100FC000F00BE02FF10BE02FF20BE02FE72FF630C4
:100FD0008312031388000630F2001330F100AD30A5
:100FE000F000F00BF12FF10BF12FF20BF12FF82F96
:100FF0004E2F0A128A11002883010A128A11482FE3
:04400E00F22FFF3F4F
:00000001FF
