:060000000A128A110C280F
:10000800FE00030EF0000A08F1000A128A15322FCA
:100018000A128A110F28831603130A128A158F26CB
:100028000A128A11E4000A128A1590260A128A1105
:10003800E5000A128A1591260A128A11E6000A12A8
:100048008A1592260A128A11E7000A128A1593263F
:100058000A128A11E8008313A0308400C6300A12FD
:100068008A1594260A128A11613084006E300A12A9
:100078008A1594260A128A11FB0183010A128A1131
:1000880045288316031388018701FF3086000A126A
:100098008A159C260A128A110A128A15A8260A129B
:1000A8008A11D330840083160313640883138000F5
:1000B800840A65088000840A66088000840A670844
:1000C8008000840A6808800020308400530880007B
:1000D800840A54088000840A55088000840A560857
:1000E8008000840A570880000A128A1173230A12B2
:1000F8008A1100300A128A11C2260A128A110130A6
:100108000A128A11C2260A128A110C300A128A119E
:10011800C2260A128A110B300A128A11C2260A1242
:100128008A111530F8008030F9000A128A11B627B2
:100138000A128A118316031388018701FF3086008B
:100148000A128A15B5260A128A1173088316031330
:10015800E1007208E000003083120313A7000030AA
:10016800A6000330A500FF30A4008316031360081F
:10017800F2006108F300F401F5010030F9000030E5
:10018800F800C330F7005030F6000A128A116A27C7
:100198000A128A11750883120313AB007408AA00A7
:1001A8007308A9007208A8000A128A11C0240A124A
:1001B8008A1183120313250883160313E30083129D
:1001C8000313240883160313E20010308312031369
:1001D800A0002730A10083160313630883120313BA
:1001E800A30083160313620883120313A2000A12E2
:1001F8008A15BC270A128A11831203132108831651
:100208000313D90083120313200883160313D8009D
:100218001030F2002730F3006308F5006208F4009C
:100228000A128A1584270A128A117308831603137F
:10023800DB007208DA00FF3083120313A0000330DA
:10024800A100831603136108F3006008F20064300C
:10025800F4000030F5000A128A150D270A128A11D7
:10026800730883120313A3007208A2000A128A15E6
:10027800BC270A128A1108300A128A11C2260A12E9
:100288008A1100300A128A11C2260A128A11013014
:10029800F8008030F9000A128A11B6270A128A116A
:1002A80008300A128A11C2260A128A1109300A1263
:1002B8008A11C2260A128A11C93083120313CE008A
:1002C8001B30CF0083160313590883120313D10080
:1002D80083160313580883120313D00083160313DD
:1002E8005B0883120313D300831603135A0883127F
:1002F8000313D2000A128A15EA260A128A11C93093
:10030800F8000030F9000A128A11B6270A128A1179
:10031800033083160313C8000830C7007630C600C0
:10032800C60B9429C70B9429C80B942900000C30DC
:100338000A128A11C2260A128A110B300A128A116D
:10034800C2260A128A113C3083120313A00000301F
:10035800A1006D08A3006C08A2000A128A15BC2728
:100368000A128A1183120313210883160313DD006E
:1003780083120313200883160313DC003C30F200B9
:100388000030F300831203136D08F5006C08F400C5
:100398000A128A1584270A128A117308831603130E
:1003A800DF007208DE00C03083120313CE000B306A
:1003B800CF00831603135D0883120313D10083163D
:1003C80003135C0883120313D000831603135F081A
:1003D80083120313D300831603135E0883120313D7
:1003E800D2000A128A15EA260A128A11C030F800C9
:1003F8000030F9000A128A11B6270A128A11A428B5
:100408000A128A110C28F400741C0B2A0C2A212ABF
:1004180083120313610884008317621C831301305D
:10042800F20064080739013E1B2A0310F20DFF3E53
:10043800031D192A72088004362A831203136108DF
:1004480084008317621C83130130F20064080739A3
:10045800013E302A0310F20DFF3E031D2E2A7208BA
:10046800FF3A8005F41C392A3A2A502A6108840088
:100478008317621C83130130F200640CF300F30C41
:10048800730C0739013E4A2A0310F20DFF3E031D83
:10049800482A72088004662A610884008317621C4F
:1004A80083130130F200640CF300F30C730C07396A
:1004B800013E602A0310F20DFF3E031D5E2A7208FA
:1004C800FF3A8005741D692A6A2A7D2A610884001A
:1004D8008317621C83130130F20065080739013E57
:1004E800772A0310F20DFF3E031D752A7208800457
:1004F800902A610884008317621C83130130F2007C
:1005080065080739013E8A2A0310F20DFF3E031DD4
:10051800882A7208FF3A8005F41D932A942AAA2A89
:10052800610884008317621C83130130F200650C94
:10053800F300F30C730C0739013EA42A0310F20DE3
:10054800FF3E031DA22A72088004C02A61088400A5
:100558008317621C83130130F200650CF300F30C5F
:10056800730C0739013EBA2A0310F20DFF3E031D32
:10057800B82A7208FF3A80050800831203133F085F
:1005880084008313000884000A128A150A200A12BC
:100598008A11253A031DD12AD22A592B3F088400F3
:1005A80001308007E601E7010030FB00FF30E8007A
:1005B800FF30E900C701F62AFB143F088400013028
:1005C8008007F62A0130C700F62A3F088400000891
:1005D80084000A128A150A200A128A11303A03196D
:1005E800E02AE62A47080319FA2AFB2AE92A3F08DB
:1005F800F8004008F9000A128A116B260A128A11BB
:10060800790883120313E7007808E600E71F0D2B2B
:100618000E2B142B7B14E609E709E60A0319E70AEF
:100628003F08840083130008C800480884000A12A1
:100638008A150A200A128A11753A031D242B252BC4
:10064800512B400884000008FF00023080077F0813
:1006580084000008C300840A0008C4003F0884001E
:100668004808013E8000462B3D08B4003E08B5000E
:100678004408B7004308B6000A128A11ED250A1289
:100688008A11722B480884000A128A150A200A1255
:100698008A11753A0319382B512B831203133F081B
:1006A8008400013083138007722B3F088400000800
:1006B80084000A128A150A200A128A11C100C2018E
:1006C8004108F2004208F3003D08F4003E08F50036
:1006D8000A128A1120240A128A11512B080061304B
:1006E800840083120313200883138000840A2108DE
:1006F8008000840A22088000840A23088000840A73
:100708002408800000306206031D8C2B053061062A
:10071800031D8F2B902B942B831603138501AF2B6E
:1007280000306206031D9A2B06306106031D9D2BBF
:100738009E2BA22B831603138601AF2B0030620673
:10074800031DA82B07306106031DAB2BAC2B1F2CF8
:100758008316031387013430F900F130F800F80BE1
:10076800B32BF90BB32BB82B03300A128A11C2260C
:100778000A128A110D30F900FB30F800F80BC22B71
:10078800F90BC22BC72B03300A128A11C2260A1290
:100798008A112A30F9008D30F800F80BD12BF90BAB
:1007A800D12BD62B03300A128A11C2260A128A11BB
:1007B80002300A128A11C2260A128A1102300A125B
:1007C8008A11C2260A128A1108300A128A11C22610
:1007D8000A128A1100300A128A11C2260A128A11D4
:1007E80006300A128A11C2260A128A110830FA0043
:1007F8007A157A08F80004300310F80CFF3E031D40
:10080800002C78080F390A128A11C2260A128A1196
:100818007A080F390A128A11C2260A128A11003080
:100828000A128A11C2260A128A1101300A128A1182
:10083800C2260A128A110800740875040319252CA7
:10084800262C2C2C74087504031D2B2C2C2C332CD3
:1008580072080A128A11FC270A128A11BF2C74081E
:10086800093E83120313A00075080318013E003ED9
:10087800A100200884008317211C83130008A2000C
:10088800840A0008A3002208230403194C2C4D2CC9
:100898007F2C7408093EA00075080318013E003E2D
:1008A800A100200884008317211C83130008A200DC
:1008B800840A0008A3007408023EA40075080318FF
:1008C800013E003EA500240884008317251C8313DD
:1008D8000008A600840A0008A7002708803AA80094
:1008E8002308803A2802031D7B2C220826020318BD
:1008F8007E2C7F2CBF2C740884008317751C8313EF
:10090800000883120313A000840A0008A1007408D9
:10091800023EA20075080318013E003EA30022080B
:1009280084008317231C831300082007A5002108CF
:10093800A4000318A40A801FA22CA4038312031383
:100948002408A600250884008317261C8313720830
:1009580080007408023EA00075080318013E003E9E
:10096800A100200884008317211C8313013080070D
:10097800840A0318800A080083120313AE01A71F14
:10098800C62CC72CD42CA409A509A609A709A40A12
:100998000319A50A0319A60A0319A70A0130AE000C
:1009A800AB1FD72CD82CE52CA809A909AA09AB0993
:1009B800A80A0319A90A0319AA0A0319AB0A0130DC
:1009C800AE060030B2000030B1000030B000003098
:1009D800AF0027082604250424040319F42CF52C59
:1009E800402D0130AD00032D0130AC000310A40DE3
:1009F800A50DA60DA70DAC0BFA2C0130AD07A71F4E
:100A0800062D072DF82C0130AC000310AF0DB00DEA
:100A1800B10DB20DAC0B092D27082B02031D1E2D9D
:100A280026082A02031D1E2D25082902031D1E2D36
:100A380024082802031C212D222D312D2408A80268
:100A48002508031C250FA9022608031C260FAA0245
:100A58002708031C270FAB022F1401300310A70C23
:100A6800A60CA50CA40CFF3E031D322D0130AD02CF
:100A7800031D3F2D402D072D2E080319442D452D0C
:100A8800502DAF09B009B109B209AF0A0319B00A6C
:100A98000319B10A0319B20A3208A7003108A600DF
:100AA8003008A5002F08A4000800F70083120313DC
:100AB800610884008317621C83130130F500630802
:100AC8000739013E692D0310F50DFF3E031D672D03
:100AD800750880047708F50004300310F50CFF3E14
:100AE800031D712D75080F390A128A1107220A127F
:100AF8008A1183120313610884008317621C83130D
:100B08000130F500630CF600F60C760C0739013E4F
:100B18008F2D0310F50DFF3E031D8D2D75088004E4
:100B28001A30F500F50B962D0000831203136108A7
:100B380084008317621C83130130F500630CF600F0
:100B4800F60C760C0739013EAB2D0310F50DFF3E70
:100B5800031DA92D7508FF3A800577080F390A1279
:100B68008A1107220A128A1183120313610884006A
:100B78008317621C83130130F500630CF600F60C32
:100B8800760C0739013ECA2D0310F50DFF3E031DF3
:100B9800C82D750880041A30F500F50BD12D00001A
:100BA80083120313610884008317621C83130130C6
:100BB800F500630CF600F60C760C0739013EE62DBD
:100BC8000310F50DFF3E031DE42D7508FF3A80055F
:100BD8000800013083120313B8006708BA006608DA
:100BE800B9001F30BB000030BC0083160313BF01DF
:100BF800352EFF3083120313BB070318BC0AFF30DE
:100C0800BC073B08A03E84000A30F2000030F30025
:100C18003708F5003608F4000A128A1584270A12E4
:100C28008A117208303E8313800083120313B801BF
:100C3800FF30B9070318BA0AFF30BA070A30A00014
:100C48000030A1003708A3003608A2000A128A154E
:100C5800BC270A128A11831203132108B70020083F
:100C6800B60083123B083C0403193B2E3C2E582E39
:100C780036083704031D412E422EFD2D3808031D6A
:100C8800462E472EFD2D3A08803AFF0080307F021D
:100C9800031D502E01303902031C532E542E582E9A
:100CA800FB18572E582EFD2D831203133408AC0061
:100CB8003508AD003B08A03EAE003A08B000390840
:100CC800AF000A128A1117270A128A110800831224
:100CD8000313A101A201780884008313000884008B
:100CE8000A128A150A200A128A112A3A031D7D2E31
:100CF8007E2EAC2E780884000130800779088400A5
:100D08000008FF00023080077F0884000008A10067
:100D1800840A0008A200BD2E2208F3002108F20070
:100D28000A30F4000030F5000A128A150D270A125D
:100D38008A118312031320087207A10000300318D8
:100D480001307307A20078088400013083138007FC
:100D580078088400000884000A128A150A200A12FA
:100D68008A11D03EA0000A302002031CBC2EBD2EE2
:100D7800902E2208F9002108F8000800F7008312D5
:100D88000313610884008317621C83130130F50084
:100D980063080739013ED22E0310F50DFF3E031DEF
:100DA800D02E7508FF3A800577080A128A110722A3
:100DB8000A128A1183120313610884008317621CC4
:100DC80083130130F500630CF600F60C760C073936
:100DD800013EF02E0310F50DFF3E031DEE2E7508A3
:100DE80080040B30F6006230F500F50BF92EF60B97
:100DF800F92E000083120313610884008317621C14
:100E080083130130F500630CF600F60C760C0739F5
:100E1800013E102F0310F50DFF3E031D0E2F750820
:100E2800FF3A800508007B1C1A2F1B2F282F8312DE
:100E380003132E08F6002C08F7002D08F8000A12F4
:100E48008A1559270A128A1183120313B01F2D2FEE
:100E58002E2F302FAF01B001B201B3014A2F20303D
:100E6800F2000030F300831203132C08F4002D085D
:100E7800F5000A128A1120240A128A1101308312FD
:100E88000313B2070318B30A0030B3073308803AD4
:100E9800B1003008803A3102031D542F2F08320266
:100EA800031C572F582F332F7B185B2F5C2F692F6C
:100EB800831203132E08F6002C08F7002D08F800FB
:100EC8000A128A1559270A128A110800003083125B
:100ED8000313A3000030A2000030A1000030A000DE
:100EE800721C772F782F912F760883120313A0078F
:100EF800770803110318013E0319832FA107780807
:100F080003110318013E03198A2FA2077908031158
:100F18000318013E0319912FA3070130FA000310AB
:100F2800F60DF70DF80DF90DFA0B932F013003109C
:100F3800F50CF40CF30CF20CFF3E031D9B2F750807
:100F4800740473047204031DAA2FAB2F742F831229
:100F580003132308F5002208F4002108F3002008F1
:100F6800F200080083120313A301A401DF2F230852
:100F78007807A1007908A0000318A00AA31FC52FAD
:100F8800A003831203132008A2002208FF002108EF
:100F980084000A128A1500200A128A110A128A117C
:100FA80059250A128A11013083120313A307031863
:100FB800A40A0030A40723087807A1007908A00034
:100FC8000318A00AA31FE92FA00383120313200804
:100FD800A2002208FF00210884000A128A150020B6
:100FE8000A128A11003A031DFA2FFB2FBB2F0800A3
:020FF8000800EF
:10100000FF1B0A2883137F1883170008840A03191B
:10101000FF0A080008308A000408840A82070034A6
:1010200056346F346C34743461346A3465343A3411
:101030002034003425343034323475343A34253495
:101040003034323475340034303430343A3430345F
:1010500030340034253475342E342534753400345E
:101D1E00073400341A342C343E3464008001840AB3
:101D2E000406031900340406952E07308316031398
:101D3E008100B2308312031381000B118B168B17A7
:101D4E0008000130831603178800813083120313B5
:101D5E009F008030831603139F0008000330F400A9
:101D6E00F40BB72E831203139F149F18BF2EC02E91
:101D7E00BC2E1E08F300831603131E08F200080083
:101D8E00831203134B08CD00D92E4908BD004A0813
:101D9E00BE004D30BF004C08C0000A128A11C1228D
:101DAE000A128A15831203134D0884000A128A152B
:101DBE000A200A128A15003A031DE62EE72ECC2EB3
:101DCE00C901CA010800503083120313D5004E0812
:101DDE00D6000030D700D801D901DF01E00156301E
:101DEE00C9000030CA004F08CB005530CC000A1293
:101DFE008A15C7260A128A158312031358084E072E
:101E0E00D40054088400831380010800F601F70102
:101E1E00721C122F132F192F7408F6070318F70AC6
:101E2E007508F70701300310F40DF50DFF3E031D85
:101E3E001A2F01300310F30CF20CFF3E031D212F5D
:101E4E0072087304031D2C2F2D2F0F2F7708F3000C
:101E5E007608F20008000B1D352F362F522F013059
:101E6E0083120313EA070318EB0A0030EB07003066
:101E7E006B02653003196A02031C462F472F4F2F42
:101E8E000130EC070318ED0A0030ED07EA01EB0113
:101E9E00B23081000B1171088A00700E8300FE0EA5
:101EAE007E0E090083120313AA01AB01762F2908B7
:101EBE00F900FA017908F2007A08F3007708F400C5
:101ECE007808F5000A128A1120240A128A150130A8
:101EDE0083120313AA070318AB0A0030AB072A08B4
:101EEE007607F9007908840083130008A9002908F1
:101EFE00031D822F832F5E2F0800720873040319AF
:101F0E00892F8A2FB72F0130F600962F013003103C
:101F1E00F20DF30DFF3E031D8E2F0130F607F31F5A
:101F2E00992F9A2F8D2F73087502031DA02F7208FB
:101F3E007402031CA32FA42FAA2F7208F402730895
:101F4E00031CF503F50201300310F30CF20CFF3EF7
:101F5E00031DAB2F0130F602031DB62FB72F9A2F9C
:101F6E007508F3007408F2000800F901FA018312F3
:101F7E000313200821040319C52FC62FFB2F013090
:101F8E00F800D22F01300310A00DA10DFF3E031D4E
:101F9E00CA2F0130F807A11FD52FD62FC92F013018
:101FAE000310F90DFA0DFF3E031DD72F2108230252
:101FBE00031DE32F20082202031CE62FE72FEE2F2E
:101FCE002008A2022108031CA303A30279140130E6
:101FDE000310A10CA00CFF3E031DEF2F0130F802E1
:101FEE00031DFA2FFB2FD62F7A08A1007908A00027
:021FFE000800D9
:04400E00F12FFF3F50
:00000001FF
