:100000000A128A11CD2FFF1B0D2883137F18831727
:100010000008840A0319FF0A080000308A00040857
:10002000840A8207003456346F346C34743461347B
:100030006A3465343A3420340034253475342E342F
:0600400025347534003484
:10024E000800073400341A342C343E346400800124
:10025E00840A04060319003404062E29013083167D
:10026E00031788008130831203139F00803083169A
:10027E0003139F0008000330F200F20B442983128F
:10028E0003139F149F184C294D2949291E08F1006C
:10029E00831603131E08F000080032308312031376
:1002AE00B7003008B8000030B900BA01BB01C10177
:1002BE00C2013830AC000030AD003108AE0037302E
:1002CE00AF000A128A1177210A128A1183120313C0
:1002DE003A083007B6003608840083138001080000
:1002EE00831203132E08FD008B29831203132C088F
:1002FE00A0002D08A1007D30A2002F08A3000A1235
:10030E008A1121260A128A117D0884000A128A1186
:10031E000D200A128A11003A031D962997297C296D
:10032E0083120313AC01AD010800700871040319A8
:10033E00A129A229CF290130F400AE2901300310E2
:10034E00F00DF10DFF3E031DA6290130F407F11F3C
:10035E00B129B229A52971087302031DB8297008A5
:10036E007202031CBB29BC29C2297008F202710853
:10037E00031CF303F30201300310F10CF00CFF3EEB
:10038E00031DC3290130F402031DCE29CF29B22942
:10039E007308F1007208F0000800FB01FC01F92956
:1003AE007B087607F9007708F8000318F80AFB1F98
:1003BE00E129F8037808FA007A0883120313FF0084
:1003CE00790884000A128A1103200A128A110A126D
:1003DE008A11F3220A128A110130FB070318FC0A54
:1003EE000030FC077B087607F9007708F800031841
:1003FE00F80AFB1F032AF8037808FA007A0883121A
:10040E000313FF00790884000A128A1103200A12CE
:10041E008A11003A031D142A152AD7290800F4015F
:10042E00F5017008710403191D2A1E2A532A013082
:10043E00F6002A2A01300310F00DF10DFF3E031DC8
:10044E00222A0130F607F11F2D2A2E2A212A0130E9
:10045E000310F40DF50DFF3E031D2F2A71087302D4
:10046E00031D3B2A70087202031C3E2A3F2A462AAD
:10047E007008F2027108031CF303F30274140130C6
:10048E000310F10CF00CFF3E031D472A0130F6025B
:10049E00031D522A532A2E2A7508F1007408F00003
:1004AE0008000030FC000030FB000030FA00003085
:1004BE00F900701C632A642A7B2A7408F9077508F0
:1004CE0003110318013E03196D2AFA07760803116A
:1004DE000318013E0319742AFB077708031103184A
:1004EE00013E03197B2AFC070130F8000310F40DBE
:1004FE00F50DF60DF70DF80B7D2A01300310F30CF8
:10050E00F20CF10CF00CFF3E031D852A73087204E9
:10051E0071047004031D942A952A602A7C08F30046
:10052E007B08F2007A08F1007908F0000800F50067
:10053E00831203135D08840083175E1C831301303E
:10054E00F3005F080739013EAE2A0310F30DFF3E9C
:10055E00031DAC2A7308FF3A800575080A128A112A
:10056E0067250A128A11831203135D08840083170C
:10057E005E1C83130130F3005F0CF400F40C740C5A
:10058E000739013ECC2A0310F30DFF3E031DCA2A84
:10059E00730880040B30F4006230F300F30BD52A9D
:1005AE00F40BD52A0000831203135D088400831711
:1005BE005E1C83130130F3005F0CF400F40C740C1A
:1005CE000739013EEC2A0310F30DFF3E031DEA2A04
:1005DE007308FF3A80050800F500831203135D08C7
:1005EE00840083175E1C83130130F3005F08073904
:1005FE00013E032B0310F30DFF3E031D012B730869
:10060E0080047508F30004300310F30CFF3E031D45
:10061E000B2B73080F390A128A1167250A128A11D9
:10062E00831203135D08840083175E1C831301304D
:10063E00F3005F0CF400F40C740C0739013E292B07
:10064E000310F30DFF3E031D272B730880041A3091
:10065E00F300F30B302B0000831203135D088400AC
:10066E0083175E1C83130130F3005F0CF400F40C4F
:10067E00740C0739013E452B0310F30DFF3E031D8D
:10068E00432B7308FF3A800575080F390A128A1139
:10069E0067250A128A11831203135D0884008317DB
:1006AE005E1C83130130F3005F0CF400F40C740C29
:1006BE000739013E642B0310F30DFF3E031D622B21
:1006CE00730880041A30F300F30B6B2B00008312B7
:1006DE0003135D08840083175E1C83130130F3003F
:1006EE005F0CF400F40C740C0739013E802B0310E0
:1006FE00F30DFF3E031D7E2B7308FF3A80050800A5
:10070E0083120313A901A31F8D2B8E2B9B2BA009E4
:10071E00A109A209A309A00A0319A10A0319A20A91
:10072E000319A30A0130A900A71F9E2B9F2BAC2BE8
:10073E00A409A509A609A709A40A0319A50A03195C
:10074E00A60A0319A70A0130A9060030AD00003031
:10075E00AC000030AB000030AA00230822042104B4
:10076E0020040319BB2BBC2B072C0130A800CA2B6D
:10077E000130FD000310A00DA10DA20DA30DFD0B68
:10078E00C12B0130A807A31FCD2BCE2BBF2B0130C1
:10079E00FD000310AA0DAB0DAC0DAD0DFD0BD02B56
:1007AE0023082702031DE52B22082602031DE52B35
:1007BE0021082502031DE52B20082402031CE82B2B
:1007CE00E92BF82B2008A4022108031C210FA502F7
:1007DE002208031C220FA6022308031C230FA702C4
:1007EE002A1401300310A30CA20CA10CA00CFF3E86
:1007FE00031DF92B0130A802031D062C072CCE2B4E
:10080E00290803190B2C0C2C172CAA09AB09AC09BF
:10081E00AD09AA0A0319AB0A0319AC0A0319AD0AEA
:10082E002D08A3002C08A2002B08A1002A08A00066
:10083E000800720873040319252C262C2C2C720820
:10084E007304031D2B2C2C2C332C70080A128A11C6
:10085E0027210A128A11B92C7208093EF400730876
:10086E000318013E003EF500740884008317751CC2
:10087E0083130008F600840A0008F7007608770450
:10088E0003194A2C4B2C7D2C7208093EF400730878
:10089E000318013E003EF500740884008317751C92
:1008AE0083130008F600840A0008F7007208023E5F
:1008BE00F80073080318013E003EF9007808840022
:1008CE008317791C83130008FA00840A0008FB00C2
:1008DE007B08803AFC007708803A7C02031D792C55
:1008EE0076087A0203187C2C7D2CB92C72088400B1
:1008FE008317731C83130008F400840A0008F500A4
:10090E007208023EF60073080318013E003EF7001F
:10091E00760884008317771C831300087407F90088
:10092E007508F8000318F80A801F9E2CF803780843
:10093E00FA007908840083177A1C831370088000EC
:10094E007208023EF40073080318013E003EF500E3
:10095E00740884008317751C831301308007840A82
:10096E000318800A08005D30840076088313800027
:10097E00840A77088000840A78088000840A79083F
:10098E008000840A7A0880000030831203135E060A
:10099E00031DD32C05305D06031DD62CD72CDB2C66
:1009AE00831603138501F62C00305E06031DE12C21
:1009BE0006305D06031DE42CE52CE92C831603138B
:1009CE008601F62C00305E06031DEF2C07305D0607
:1009DE00031DF22CF32C662D83160313870134307E
:1009EE00FC00F130FB00FB0BFA2CFC0BFA2CFF2C5D
:1009FE0003300A128A119E220A128A110D30FC004F
:100A0E00FB30FB00FB0B092DFC0B092D0E2D0330CB
:100A1E000A128A119E220A128A112A30FC008D3087
:100A2E00FB00FB0B182DFC0B182D1D2D03300A128D
:100A3E008A119E220A128A1102300A128A119E22ED
:100A4E000A128A1102300A128A119E220A128A1181
:100A5E0008300A128A119E220A128A1100300A12D6
:100A6E008A119E220A128A1106300A128A119E22B9
:100A7E000A128A110830FD007D157D08FB00043036
:100A8E000310FB0CFF3E031D472D7B080F390A1286
:100A9E008A119E220A128A117D080F390A128A11B2
:100AAE009E220A128A1100300A128A119E220A12FE
:100ABE008A1101300A128A119E220A128A11080026
:100ACE00F200721C6B2D6C2D812D831203135D08A9
:100ADE00840083175E1C83130130F0006008073911
:100AEE00013E7B2D0310F00DFF3E031D792D700886
:100AFE008004962D831203135D08840083175E1CF9
:100B0E0083130130F00060080739013E902D031069
:100B1E00F00DFF3E031D8E2D7008FF3A8005F21C6E
:100B2E00992D9A2DB02D5D08840083175E1C8313BA
:100B3E000130F000600CF100F10C710C0739013E30
:100B4E00AA2D0310F00DFF3E031DA82D7008800482
:100B5E00C62D5D08840083175E1C83130130F000E0
:100B6E00600CF100F10C710C0739013EC02D031021
:100B7E00F00DFF3E031DBE2D7008FF3A8005721D5D
:100B8E00C92DCA2DDD2D5D08840083175E1C8313CD
:100B9E000130F00061080739013ED72D0310F00D2A
:100BAE00FF3E031DD52D70088004F02D5D088400D6
:100BBE0083175E1C83130130F00061080739013E74
:100BCE00EA2D0310F00DFF3E031DE82D7008FF3ACD
:100BDE008005F21DF32DF42D0A2E5D088400831777
:100BEE005E1C83130130F000610CF100F10C710CEE
:100BFE000739013E042E0310F00DFF3E031D022E99
:100C0E0070088004202E5D08840083175E1C8313F9
:100C1E000130F000610CF100F10C710C0739013E4E
:100C2E001A2E0310F00DFF3E031D182E7008FF3A0A
:100C3E008005080083120313220884000008840034
:100C4E000A128A110D200A128A11253A031D302E1E
:100C5E00312ECB2E2208840001308007E201E30101
:100C6E000030E600FF30E400FF30E500220884008B
:100C7E000008AA002A0884000A128A110D200A12FE
:100C8E008A11753A031D4C2E4D2EC42E2308840056
:100C9E0083130008FF00023080077F0884000008DD
:100CAE00A600840A0008A700220884002A08013E34
:100CBE008000B92E2030AB000130AB022B08A03ED5
:100CCE0084000A30F0000030F1002708F3002608F7
:100CDE00F2000A128A119C210A128A117008303E03
:100CEE00831380000A30F0000030F10083120313EA
:100CFE002708F3002608F2000A128A1116220A1299
:100D0E008A11710883120313A7007008A600260823
:100D1E0027040319932E942EB22E2B08031D982E02
:100D2E00992E632EB22E2B08A03E8400831300084A
:100D3E00A400A5012408F0002508F1002008F20007
:100D4E002108F3000A128A1120240A128A11013096
:100D5E0083120313AB0720302B06031DB72EB82EBC
:100D6E009A2EE42E2A0884000A128A110D200A12E5
:100D7E008A11753A0319612EC42E831203132208A9
:100D8E00840001308007E42E2208840000088400CD
:100D9E000A128A110D200A128A11A400A501240834
:100DAE00F0002508F1002008F2002108F3000A12D5
:100DBE008A1120240A128A11C42E08000A128A11DE
:100DCE0035210A128A1150308400831203136708EA
:100DDE0083138000840A68088000840A69088000F2
:100DEE00840A6A088000840A6B08800076308400CA
:100DFE0050088000840A51088000840A520880003E
:100E0E00840A53088000840A540880000A128A114A
:100E1E00BA240A128A1100300A128A119E220A126C
:100E2E008A1101300A128A119E220A128A11083082
:100E3E000A128A119E220A128A1100300A128A118F
:100E4E009E220A128A110130F6008030F7000A1233
:100E5E008A11D4210A128A1108300A128A119E228E
:100E6E000A128A1109300A128A119E220A128A1156
:100E7E000A128A1142210A128A117108831203136F
:100E8E00D6007008D5000030A3000030A200033059
:100E9E00A100FF30A0005508F0005608F100F20145
:100EAE00F3010030F7000030F600C330F50050308B
:100EBE00F4000A128A1158220A128A117308831238
:100ECE000313A7007208A6007108A5007008A400FD
:100EDE000A128A1187230A128A1183120313210818
:100EEE00DC002008DB001030F0002730F1005C0839
:100EFE00F3005B08F2000A128A1116220A128A11F6
:100F0E00710883120313D8007008D7001030F00058
:100F1E002730F1005C08F3005B08F2000A128A1118
:100F2E009C210A128A11710883120313DA007008C9
:100F3E00D9004630B0000B30B1005808B300570846
:100F4E00B2005A08B5005908B4000A128A11542189
:100F5E000A128A114630F6000030F7000A128A1182
:100F6E00D4210A128A11033083120313C5000830EC
:100F7E00C4007630C300C30BC22FC40BC22FC50BE7
:100F8E00C22F0000122F0A128A1100280A128A118B
:100F9E0028210A128A11E7000A128A1129210A123F
:100FAE008A11E8000A128A112A210A128A11E9000E
:100FBE000A128A112B210A128A11EA000A128A11C8
:100FCE002C210A128A11EB008313A0308400C0304A
:100FDE000A128A112D210A128A115D30840067309F
:100FEE000A128A112D210A128A1183010A128A11FC
:020FFE00E52EDE
:04400E00F12FFF3F50
:00000001FF
