:060000000A128A110C280F
:10000800FE00030EF0000A08F1000A128A111E2CE5
:100018000A128A110F280A128A1136240A128A1122
:10002800B5000A128A1137240A128A11B6000A1278
:100038008A1138240A128A11B7000A128A1139243F
:100048000A128A11B8000A128A113A240A128A116D
:10005800B900AF01B001B101B201B301B40183012C
:100068000A128A1137288316031788018901831613
:10007800031301087F39810088018701FF3086005A
:100088008B170B16011328308400831203133508CD
:1000980083138000840A36088000840A37088000A9
:1000A800840A38088000840A3908800020308400D7
:1000B80028088000840A29088000840A2A08800009
:1000C800840A2B088000840A2C0880000A128A11EE
:1000D800E4210A128A110930F80000300A128A1144
:1000E80025230A128A110130F80001300A128A11F8
:1000F80025230A128A118312031334080319852849
:100108008628DE2800300A128A117B230A128A11F7
:1001180001300A128A117B230A128A1108300A1246
:100128008A117B230A128A1100300A128A117B2352
:100138000A128A111C30F8000A128A11FA230A12CC
:100148008A110C300A128A117B230A128A11003094
:100158000A128A117B230A128A1183120313AD0132
:1001680001300A128A1191220A128A1182308312EE
:100178000313A600DD30A500A50BC028A60BC028D8
:10018800013083120313AD0710302D02031CCD2854
:10019800CE28B428023083120313A7000430A60027
:1001A800B930A500A50BD628A60BD628A70BD628AC
:1001B800DD287F2800300A128A117B230A128A114F
:1001C80001300A128A117B230A128A1108300A1296
:1001D8008A117B230A128A1100300A128A117B23A2
:1001E8000A128A111130F8000A128A11FA230A1227
:1001F8008A110C300A128A117B230A128A110030E4
:100208000A128A117B230A128A1183120313AE0180
:1002180000300A128A1191220A128A11823083123E
:100228000313A600DD30A500A50B1829A60B182975
:10023800013083120313AE0710302E02031C252948
:1002480026290C29CE280A128A110C28F400741CBD
:100258002E292F294429831203132F08840083177A
:10026800301C83130130F20032080739013E3E2961
:100278000310F20DFF3E031D3C2972088004592922
:10028800831203132F0884008317301C8313013053
:10029800F20032080739013E53290310F20DFF3EE0
:1002A800031D51297208FF3A8005F41C5C295D2959
:1002B80073292F0884008317301C83130130F20040
:1002C800320CF300F30C730C0739013E6D2903104F
:1002D800F20DFF3E031D6B297208800489292F083F
:1002E80084008317301C83130130F200320CF300B2
:1002F800F30C730C0739013E83290310F20DFF3EFE
:10030800031D81297208FF3A8005741D8C298D29E7
:10031800A0292F0884008317301C83130130F200B2
:1003280033080739013E9A290310F20DFF3E031DD9
:10033800982972088004B3292F0884008317301C79
:1003480083130130F20033080739013EAD29031049
:10035800F20DFF3E031DAB297208FF3A8005F41D1C
:10036800B629B729CD292F0884008317301C831399
:100378000130F200330CF300F30C730C0739013E23
:10038800C7290310F20DFF3E031DC529720880041A
:10039800E3292F0884008317301C83130130F200EF
:1003A800330CF300F30C730C0739013EDD290310FD
:1003B800F20DFF3E031DDB297208FF3A8005080095
:1003C8002F30840083120313200883138000840ACB
:1003D80021088000840A22088000840A23088000FB
:1003E800840A2408800000303006031DFD290530EA
:1003F8002F06031D002A012A052A831603138501E7
:10040800202A00303006031D0B2A06302F06031D54
:100418000E2A0F2A132A831603138601202A003076
:100428003006031D192A07302F06031D1C2A1D2A12
:10043800902A8316031387013430F900F130F8004D
:10044800F80B242AF90B242A292A03300A128A11C4
:100458007B230A128A110D30F900FB30F800F80BE3
:10046800332AF90B332A382A03300A128A117B23DC
:100478000A128A112A30F9008D30F800F80B422A46
:10048800F90B422A472A03300A128A117B230A12DF
:100498008A1102300A128A117B230A128A11023049
:1004A8000A128A117B230A128A1108300A128A1149
:1004B8007B230A128A1100300A128A117B230A123E
:1004C8008A1106300A128A117B230A128A1108300F
:1004D800FA007A157A08F80004300310F80CFF3E89
:1004E800031D712A78080F390A128A117B230A1210
:1004F8008A117A080F390A128A117B230A128A1183
:1005080000300A128A117B230A128A1101300A125A
:100518008A117B230A128A110800F7008312031339
:100528002F0884008317301C83130130F50031082D
:100538000739013EA12A0310F50DFF3E031D9F2A2E
:10054800750880047708F50004300310F50CFF3EA9
:10055800031DA92A75080F390A128A112A210A12BD
:100568008A11831203132F0884008317301C831306
:100578000130F500310CF600F60C760C0739013E17
:10058800C72A0310F50DFF3E031DC52A7508800410
:100598001A30F500F50BCE2A0000831203132F083A
:1005A80084008317301C83130130F500310CF600EA
:1005B800F60C760C0739013EE32A0310F50DFF3ED1
:1005C800031DE12A7508FF3A800577080F390A12DA
:1005D8008A112A210A128A11831203132F08840010
:1005E8008317301C83130130F500310CF600F60C2C
:1005F800760C0739013E022B0310F50DFF3E031D53
:10060800002B750880041A30F500F50B092B000043
:10061800831203132F0884008317301C83130130BF
:10062800F500310CF600F60C760C0739013E1E2B4E
:100638000310F50DFF3E031D1C2B7508FF3A8005BE
:10064800080083120313A0002008F90002300310E9
:10065800F90DFF3E031D2B2B0310790D403EFA00C8
:1006680004300310FA0CFF3E031D352B7A080F39AE
:100678000A128A117B230A128A1183120313200893
:10068800F90002300310F90DFF3E031D462B03103D
:10069800790D403E0F390A128A117B230A128A11FA
:1006A80083120313A1012108780784000A128A1112
:1006B800D0230A128A110A128A1191220A128A1167
:1006C800013083120313A10708302102031C6D2B8C
:1006D8006E2B572B08300A128A117B230A128A11B3
:1006E80000300A128A117B230A128A110800F700C7
:1006F800831203132F0884008317301C83130130DF
:10070800F50031080739013E8B2B0310F50DFF3E2C
:10071800031D892B7508FF3A800577080A128A118C
:100728002A210A128A11831203132F0884008317BF
:10073800301C83130130F500310CF600F60C760CF2
:100748000739013EA92B0310F50DFF3E031DA72B0A
:10075800750880040B30F6006230F500F50BB22BFB
:10076800F60BB22B0000831203132F0884008317A3
:10077800301C83130130F500310CF600F60C760CB2
:100788000739013EC92B0310F50DFF3E031DC72B8A
:100798007508FF3A8005080003308A000408840AB7
:1007A8008207003411341B341F341F340E340434D0
:1007B800043400341F341534153415341534153405
:1007C80015341F34203452344134593441344434BC
:1007D8004F345334213420340034203450345534C9
:1007E8004D3441345334213420340034F901FA01B2
:1007F800102C7908780784000A128A11D0230A126B
:100808008A110A128A1191220A128A110130F907F3
:100818000318FA0A0030FA077908780784000A12E0
:100828008A11D0230A128A11003A031D1C2C1D2C90
:10083800FD2B08008B1C212C222C2F2C8B108B13AA
:1008480083120313340803192A2C2C2C01302D2C65
:100858000030B4008B1771088A00700E8300FE0EFA
:0E0868007E0E0900073400341A342C343E345E
:04400E00F12FFF3F50
:00000001FF
